:020000040800F2
:100000006068002039020008410700085B0600080C
:100010003D070008E90200087144000800000000E4
:10002000000000000000000000000000650900085A
:100030000B03000800000000E10700087D0A00082B
:10004000530200085302000853020008530200083C
:10005000530200085302000853020008530200082C
:10006000530200085302000853020008530200081C
:10007000530200085302000853020008530200080C
:1000800053020008530200085302000853020008FC
:1000900053020008530200085302000853020008EC
:1000A00053020008530200085302000853020008DC
:1000B00053020008530200085302000853020008CC
:1000C00053020008530200085302000853020008BC
:1000D000530200085302000853020008E90A00080E
:1000E000530200085302000853020008530200089C
:1000F000530200085302000853020008530200088C
:10010000530200085302000853020008530200087B
:10011000530200085302000853020008530200086B
:10012000530200085302000853020008530200085B
:10013000530200085302000853020008530200084B
:10014000530200085302000853020008D1070008B8
:10015000530200085302000853020008530200082B
:10016000530200085302000853020008530200081B
:10017000530200085302000853020008530200080B
:10018000530200085302000800F002F800F03CF8A7
:100190000AA090E8000C82448344AAF10107DA45E2
:1001A00001D100F031F8AFF2090EBAE80F0013F0F8
:1001B000010F18BFFB1A43F001031847BC69000088
:1001C000DC690000103A24BF78C878C1FAD8520719
:1001D00024BF30C830C144BF04680C6070470000C1
:1001E0000023002400250026103A28BF78C1FBD840
:1001F000520728BF30C148BF0B6070471FB506F0DB
:10020000A6FA1FBD10B510BD00F03BF81146FFF770
:10021000F5FF05F0F5FE00F059F803B4FFF7F2FF23
:1002200003BC04F027F9000030BF72B6704762B615
:10023000704780F30888704709488047094800479D
:10024000FEE7FEE7FEE7FEE7FEE7FEE7FEE7FEE786
:10025000FEE7FEE704480549054A064B70470000E3
:10026000810A00088901000860620020606800209F
:1002700060640020606400207047704770477047DA
:100280007047754600F02CF8AE46050069465346A7
:1002900020F00700854618B020B5FFF7DBFFBDE86A
:1002A00020404FF000064FF000074FF000084FF0DD
:1002B000000B21F00701AC46ACE8C009ACE8C0096E
:1002C000ACE8C009ACE8C0098D46704710B50446DB
:1002D000AFF300802046BDE81040FFF79EBF00004E
:1002E00000487047FC61002000BFFEE721B10268B2
:1002F00042F00102026003E0026822F001020260A3
:1003000070470146486880B27047704730B107496E
:10031000096841F48061054A116005E003490968F4
:1003200021F48061014A116070470000003C0240E6
:1003300070B504460A460026092502B909E0012ADB
:1003400001D1160205E0022A01D1160201E04FF4A4
:10035000407600F09FF80546092D28D11548006821
:1003600020F4407013490860084600683043086074
:100370000846006820F0F80008600846006844F06D
:10038000020108430B4908600846006840F48030C9
:10039000086000F07FF805460648006820F002007B
:1003A000044908600846006820F0F8000860284604
:1003B00070BD0000103C024009201349096801F497
:1003C0008031B1F5803F01D101201CE00E49096860
:1003D00001F0100109B1062015E00B49096801F48C
:1003E000807109B102200EE00749096801F0EF01B0
:1003F00009B1072007E00449096801F0020109B1C9
:10040000082000E0092070470C3C024003480068C7
:1004100040F000400149086070470000103C024075
:1004200030B502460C46092500F034F80546092D82
:1004300019D10E48006820F440700C490860084645
:10044000006840F4007008600846006840F0010051
:100450000860146000F01EF805460448006820F0AB
:10046000010002490860284630BD0000103C0240EF
:100470000548006800F0004028B1044802490C39E2
:100480000860034808607047103C0240230167453C
:10049000AB89EFCD08B509200090FFF78DFF0090E4
:1004A00002E0FFF789FF00909DF800000128F8D0D6
:1004B0009DF8000008BDF0B50A4600210023002485
:1004C00000BF3DE0012505FA01F3156805EA0304C4
:1004D0009C4234D105684F000326BE40B5430560F9
:1004E00015794E00B5400668354305601579012D34
:1004F00002D01579022D16D185684F000326BE4023
:10050000B543856055794E00B540866835438560B2
:10051000456801268E40B5434560456896798E4012
:10052000B6B235434560C5684F000326BE40B543AB
:10053000C560D5794E00B540C6683543C560491CD5
:100540001029BFD3F0BDF0B5002300244D07ED0EF8
:1005500002FA05F3CE1000F1200555F826504E079B
:10056000F70E0F26BE40B543CF1000F1200646F827
:100570002750CE1000F1200555F8265045EA030417
:10058000CE1000F1200545F82640F0BD41837047AC
:1005900001464869806880B2704708B50146D1F8C5
:1005A000CC00006800900098C0F3414008BD0246AE
:1005B00002F29B30405C7047024602F5547050F8DE
:1005C0002100704770B504460E4600250021C4F88E
:1005D000101300BF0BE0002104F5457040F8251012
:1005E0003C3040F825103C304155681CC5B20F2DF9
:1005F000F1DB0821A4F8B2133146204602F0FAFEDE
:10060000204602F001FB204602F0C8F901212046F5
:1006100002F058FF204602F054FA204602F04DFB4B
:10062000002070BD0146D1F81003704710B5044694
:10063000204602F0BEFE002010BD70B504460D46F7
:10064000002104F29B304155113000EB451041610F
:100650002946204602F05CFD70BD00BFFEE70000A9
:1006600008B5002005F0FEFD04F0BAFC07490122A0
:10067000086807A104F0D0FE0648074B074A01218D
:100680000090074800F0CCFE08BD00002C000020C0
:10069000303A00009C000020840000200409002063
:1006A00098090020002500243CE01F491F4801F064
:1006B00029FF012004F080F9681C85B2C82D0CD1F7
:1006C00001201B490860142004F076F90020194924
:1006D000C1F89C02601C84B20025032C22DB0020A0
:1006E0001349086000241448406800F07F40B0F1CE
:1006F000006F15D14FF47A7004F05EF901200C49B7
:1007000008604FF4FA7004F057F900200949C1F865
:100710009C02642004F050F9074805F017FC01E042
:1007200005F0DAFFC1E70000040900209809002065
:100730009C824042008040420080000800BFFEE7EB
:100740007047000070B5002100230F22C4781CB34D
:10075000174C246804F4E064C4F5E064C4F3072192
:10076000C1F10404E3B20A4144789C40E1B28478C8
:10077000144021430C07210E0E4C05786155047876
:1007800004F01F050124AC4005786D11AD0005F1A2
:10079000E025C5F8004109E0047804F01F050124B4
:1007A000AC40054D0678761145F8264070BD000036
:1007B0000CED00E000E400E080E100E002490143CC
:1007C000024A1160704700000000FA050CED00E0DD
:1007D00010B5024801F0FAFC10BD00009809002095
:1007E0007047000029B1064A12680243044B1A60A0
:1007F00004E0034A12688243014B1A60704700000C
:100800003038024029B1064A12680243044B1A608C
:1008100004E0034A12688243014B1A6070470000EB
:100820003438024001461C48814201D20020704702
:100830001A48814201D20820F9E71948814201D2C1
:100840001020F4E71748814201D21820EFE716483C
:10085000814201D22020EAE71448814201D22820B7
:10086000E5E71348814201D23020E0E71148814298
:1008700001D23820DBE71048814201D24020D6E780
:100880000E48814201D24820D1E70D48814201D271
:100890005020CCE75820CAE700400008008000083C
:1008A00000C0000800000108000002080000040861
:1008B000000006080000080800000A0800000C08F4
:1008C00000000E0801460868704700002DE9F04757
:1008D00004460E4617464FF009080025A946B4F114
:1008E000006F02D304F0030008B1BDE8F087FFF702
:1008F000BFFD0020FFF70AFD254604EB87091848D5
:10090000854215D211E02846FFF7DCFF401C58B1A4
:100910002846FFF787FF82460221FFF709FD804640
:10092000B8F1090F01D002E02D1D4D45EBD300BFFA
:10093000B8F1090F0CD108E020463168FFF770FDCF
:10094000092800D003E0241D361D4C45F4D300BF18
:100950000120FFF7DBFCFFF759FD00BFC5E70000F2
:100960000000FF1F704700000CB5002001900090B0
:100970003448006840F480303249086000BF314894
:10098000006800F4003000900198401C019000982D
:1009900018B90198B0F5A04FF1D12A48006800F4C9
:1009A000003010B10120009001E00020009000987C
:1009B000012846D123484030006840F0805021494A
:1009C000403108602048006840F440401E490860FB
:1009D0001C48083000681B49083108600846006858
:1009E00040F4004008600846006840F4A0500860E9
:1009F0001648091F0860081F006840F08070091F32
:100A0000086000BF0F48006800F000700028F9D0AF
:100A100040F205700E4908600A480830006820F06E
:100A200003000849083108600846006840F00200E9
:100A3000086000BF03480830006800F00C00082878
:100A4000F8D10CBD00380240007000400854400747
:100A5000003C0240042808D14FF0E021096941F030
:100A600004014FF0E022116107E04FF0E021096935
:100A700021F004014FF0E02211617047704700003F
:100A800010B51548006840F4700013490860134819
:100A9000006840F001001149086000200F4908314A
:100AA00008600E4800680E4908400C4908600D486F
:100AB000091D0860081F006820F48020091F0860D5
:100AC000002006490C310860FFF74EFF4FF0006030
:100AD00001498039086010BD88ED00E0003802400F
:100AE000FFFFF6FE1030002410B5002440F2244130
:100AF0000F4800F021F8C0B100210E48FFF7F6FBC7
:100B00000B480088C4B20A48001D0088C4B20948D6
:100B1000FFF7F7FBC0F18000C4B2802005492839F7
:100B2000C86201210348FFF7E1FB00BF10BD0000D0
:100B3000004800402860024070B5024600240023AF
:100B40000025002040F66A16B14200D100BFC1F373
:100B5000421501F01F03012606FA03F3012D02D10D
:100B60009689334006E0022D02D1168A334001E017
:100B7000968A33400C12012606FA04F41688344093
:100B800013B10CB1012000E0002070BD70B5054626
:100B90000E46284600F0BEF904464FF6FF70844228
:100BA00005D046F4004105F28C5020F81410E0B254
:100BB00070BD2DE9F04105460E4617461C46012141
:100BC00005F56B7000EB4410817005F56B7000EB60
:100BD0004410C66005F56B7000EB4410076105F525
:100BE0006B7000EB4410007E30B9002105F56B708E
:100BF00000EB4410017205E0022105F56B7000EB7B
:100C00004410017221462846FFF717FD0020BDE879
:100C1000F0812DE9F04105460E4617461C4600219D
:100C200005F56B7000EB4410817005F56B7000EBFF
:100C30004410C66005F56B7000EB4410076105F5C4
:100C40006B7000EB4410407E28B905F56B7000EB2B
:100C50004410017205E0022105F56B7000EB4410B1
:100C6000017221462846FFF7E8FC0020BDE8F0812C
:100C70002DE9F04105460C4616461F460221217516
:100C8000012161750021E1822683618306F08000E5
:100C9000802805D105F56B7000EB4710017605E063
:100CA000002105F56B7000EB4710417600231A46D2
:100CB0002146284600F02BF8BDE8F08101460122CC
:100CC000C1F81023002070472DE9F04105460E467B
:100CD00017461C46012105F56B7000EB441081702E
:100CE000022105F56B7000EB4410017205F56B7085
:100CF00000EB4410C66005F56B7000EB4410076113
:100D000021462846FFF799FC0020BDE8F0812DE937
:100D1000F04180460C4615461E460127E078012822
:100D200002D0022820D108E032462946204601F0B0
:100D3000E3FC0220E070012717E0207F0D2805D199
:100D40000120E0700021217700270CE0207F0B2894
:100D500003D10120E070022705E0207F0C2802D19A
:100D60000120E070032700E000BF00BF3846BDE867
:100D7000F0812DE9F04105460F4616461C4600213C
:100D800005F56B7000EB4410817005F56B7000EB9E
:100D90004410C76005F56B7000EB441006612EB976
:100DA000012105F56B7000EB4410417605F56B7081
:100DB00000EB4410407E30B9002105F56B7000EB6C
:100DC0004410017205E0022105F56B7000EB441040
:100DD000017221462846FFF730FC0020BDE8F08173
:100DE00070B505460E461446002105F56B7000EB04
:100DF00044108170032105F56B7000EB4410017203
:100E000005F56B7000EB4410C660082105F56B70AA
:100E100000EB4410016121462846FFF70EFCC0B2EA
:100E200070BD0246022106E0002302F28C5020F839
:100E30001130481CC1B20829F6DB0020704770B59C
:100E400005460C46002020706070A0700120E07004
:100E5000012121774021A171002084F82000012187
:100E6000212001552179284600F023F86179284690
:100E700000F01FF8002070BD01460022C1F81023C9
:100E80000020704770B504460D46052D01D0042D95
:100E900006D1D4F89010486C80470A20207007E0F3
:100EA000062D05D10A202070D4F8901008688047DC
:100EB00070BD0246082909DA02F28C5030F81100A0
:100EC000C0F30E0302F28C5020F81130002070475E
:100ED0002DE9F04780460C4616461D46DDE9089789
:100EE00046F08001217506216175E58205F47F4099
:100EF000B0F5407F03D140F20941218301E0002198
:100F0000218367833B464A4621464046FFF7FFFE62
:100F1000BDE8F0870246002100BF0AE002F28C50D3
:100F200030F8110000F4004008B908467047481C2A
:100F3000C1B20829F2DB4FF6FF70F7E710B50246A1
:100F40000B88147823440B801378981810BD000088
:100F50002DE9FC4104460D461646002704F588702D
:100F60004FF4007300222946CDE900062046FFF722
:100F7000AFFFB0F1000814D106E004F58870C05D41
:100F80000949C855781C87B2B742F6DB04F5887367
:100F900005F1500205F13E0105F13400009601F023
:100FA000B7F94046BDE8FC81605B00202DE9FC41BB
:100FB00004460D46164604F588704FF480730022EF
:100FC0002946CDE900062046FFF782FF071E06D11D
:100FD000324604F5887105F1220001F029FA3846FD
:100FE000BDE8FC812DE9FC470446884615461E46AF
:100FF0000A9F04F5887045F4407300224146CDE90C
:1010000000072046FFF764FFB0F1000905D13A461A
:10101000314604F5887001F05AFA4846BDE8FC876D
:101020002DE9F04106460C464FF00008002500214E
:10103000A174207F0C2876D2DFE800F0FD060F3D7A
:10104000466576919AC0D7ED627904F11401304675
:10105000FFF7C6FE02212177EEE061793046FFF707
:10106000A6FA0546012D1FD1207D00F08007608B78
:1010700058B141F2883072490880802F02D1032193
:1010800021770CE00521217709E032206C490880A6
:10109000802F02D10921217701E0072121773046F5
:1010A000FFF776FA208205E0032D03D10B2121778B
:1010B0000521A174C0E02379A2893046A168FFF719
:1010C00003FE04212177B7E021793046FFF76FFA5C
:1010D0000546012D01D109212177042D02D1607827
:1010E00020700FE0032D02D10B2121770AE030465A
:1010F000FFF74EFA218A401A51490988884201D9DE
:101100000B21217798E00121627906F56B7000EBE5
:10111000421041766379A2893046A168FFF729FE23
:101120000621217788E086E061793046FFF73FFAB3
:101130000546012D02D1072121770FE0042D04D1AE
:10114000607820700C21217708E0022D02D1052162
:10115000217703E0032D01D10B2121776CE0237966
:10116000002211463046FFF7AFFD0821217763E0EA
:1011700021793046FFF71BFA0546012D04D160782E
:1011800020700D21217718E0032D02D10B2121774A
:1011900013E03046FFF7FCF9218A401A28490988F4
:1011A000884202D90B21217707E0042D05D1607810
:1011B00020700421A1744FF003083DE0617906F529
:1011C0006B7000EB4110407E80F00101627906F502
:1011D0006B7000EB42104176637900221146304675
:1011E000FFF7C7FD0A21217726E061793046FFF736
:1011F000DEF90546012D04D1607820700D2121779C
:1012000008E0022D02D10921217703E0032D01D14D
:101210000B21217710E0A07B401CC1B2A1730229F1
:1012200002DC0121217705E00821A174607820709B
:101230004FF0020800E000BF00BF4046BDE8F0816B
:101240005C00002070B592B005460C460126A078DF
:101250000A287AD2DFE800F00528375D667A97B46D
:10126000D1DB082221462846FFF7A0FED8B994F822
:101270002910A1712846FFF7D9F90120A070A079A3
:101280000021CDE90010617900231A46284600F0BC
:101290006BFFA0790021CDE90010217900231A46C7
:1012A000284600F061FFB5E0122221462846FFF7EC
:1012B0007DFE38B9D4F89000C16904F12200884756
:1012C0000220A070A6E001222146284601F0EEF996
:1012D000F0B9022001F056FB0120A41CA077D4F83D
:1012E0008E10086A80470320207000200090019033
:1012F000A27FA1780346284600F036FF0020009028
:101300000190A27FA41E61790346284600F02CFFBD
:1013100080E0092221462846FFF71AFE08B904207A
:10132000A07077E0E28E21462846FFF711FE58B9FB
:10133000D4F8900004F1500204F13E01436A04F134
:10134000340098470520A07064E062E094F8300013
:1013500088B1FF20009094F8302002AB2146284647
:10136000FFF740FE70B9D4F89000816A02A8884760
:101370000620A07006E0D4F89000816A27A0884774
:101380000620A07046E094F8310088B1FF2000905C
:1013900094F8312002AB21462846FFF723FE70B9AE
:1013A000D4F89000C16A02A888470720A07006E020
:1013B000D4F89000C16A19A088470720A07029E0DE
:1013C00094F8320088B1FF20009094F8322002ABEC
:1013D00021462846FFF706FE70B9D4F89000016B4D
:1013E00002A888470820A07006E0D4F89000016B9E
:1013F0000AA088470820A0700CE094F83920214604
:10140000284601F066F908B90920A07002E000261C
:1014100000E000BF00BF304612B070BD4E2F41004B
:101420002DE9F04106460F4614461D46DDF81880AA
:10143000304601F06BFA002001F054FA21463046A4
:10144000FFF7FDFCC4F88C50C4F890803946304654
:10145000FFF7B8F8D4F8901008688047304601F0DC
:1014600043FABDE8F08170B505460C46212121758F
:10147000FF2161750021E1822183618300231A46E7
:1014800021462846FFF743FC70BD00002DE9F041DE
:1014900005460E461446012714B1012C12D108E06E
:1014A00010480378C27831462846FFF7E1FB07462B
:1014B00009E00C484378827831462846FFF7D8FB8C
:1014C000074600E000BF00BF07480068401C06490F
:1014D000086008460068042800D904273846BDE89B
:1014E000F0810000A05D00206400002010B50246DD
:1014F00000200023014C237010BD0000905D0020EF
:101500002DE9F04105460F46002601242846FFF745
:1015100089F820B3154801782846FFF74DF80646AC
:101520000D2E01D002241CE01148006811498842A8
:1015300016D10F48406810494968884211D10C48BB
:10154000007B08B900240CE00948007B012801D188
:10155000012406E00648007B022802D1022400E0B4
:1015600002240648C4732046BDE8F081A05D002037
:10157000805D002055534253605D0020905D002047
:10158000012812D10D490978491C0C4A11701146E5
:1015900009780A2905DA0621094A11700121D1705A
:1015A0000AE00A21064A117006E0022803D10A2146
:1015B000034A117000E000BF704700008000002067
:1015C000905D002070B505460C46A1212175FE21D5
:1015D00061750021E1822183012161830123034A96
:1015E00021462846FFF793FB70BD0000A85D002050
:1015F0002DE9F04781460F463E46012403254FF072
:1016000000084846FFF70EF8002878D05E480078BA
:101610000B2875D2DFE800F0060D1E5566798A9911
:101620009E44B000484600F05FFA01205649087019
:10163000A5E039464846FFF716FF044614B90220D4
:1016400051490870032C04D102204F4948700920E9
:10165000087094E039464846FFF7B4FF0446BCB929
:101660004A48007A494981F84800084690F84800FD
:1016700000280ADD4648007838B90120444908703E
:10168000D6F89010086C804779E003203E49087036
:10169000032C04D103203C494870092008706EE0F7
:1016A0007379002239464846FFF7E2FA04463CB90E
:1016B0000020364981F848003348407832490870A4
:1016C0005DE0484600F086FC05463DB904202E4901
:1016D000087000202F490870002402E02846FFF718
:1016E0004FFF4CE0484600F097FB05464DB90520FA
:1016F00025490870002027490870002404E03FE0D5
:101700003CE02846FFF73CFF39E0484600F09CFAF1
:1017100005463DB908201C49087000201D49087085
:10172000002402E02846FFF72BFF28E0484600F09F
:10173000E1FB05462DB91448407813490870002490
:1017400002E02846FFF71CFF19E03946484600F042
:1017500023F814E0D6F89010C86B804700F0FF081B
:10176000B8F1000F03D108200749087003E0B8F171
:10177000010F00D1062402E0042400E000BF00BFF6
:101780002046BDE8F0870000905D0020A05D0020AD
:1017900094000020800000202DE9F0478046894613
:1017A00000244046FEF73EFF00287DD0C548007962
:1017B00009287AD2DFE800F079051251A3FDFCFB7D
:1017C000FA00C14843781F22C0494046FFF721FA7A
:1017D0000120BC4948710220087170E1BA48417883
:1017E0004046FEF7E4FE0446012C26D10020B8490D
:1017F00008600220B3494871B448007B00F08007BC
:10180000B2488068A8B1B1488068B2490860AD4864
:101810008068B149086008460068B0490860802FB8
:1018200003D10320A749087116E00420A5490871D7
:1018300012E00520A34908710EE0022C04D1A14852
:101840004079A049087107E0042C05D10120A44982
:10185000087008209B49087131E19B480178404697
:10186000FEF7A5FE0446012C03D0964840790328D4
:101870003AD0002096490860032092494871924866
:10188000808894490968884219D28F4803788288F1
:10189000914801684046FFF78CF98B4880888D4954
:1018A0000968081A8B4901E00AE107E108608648E7
:1018B0008088894909680844874908601EE085488E
:1018C000006818B905207F49087117E07E48037841
:1018D0008048008882B2804801684046FFF769F975
:1018E00000207C49086009E0042C07D100207C49D5
:1018F000087007207349087105204871DFE07248BD
:1019000041784046FEF753FE0446012C3BD10020AF
:101910006F49086004206B4948716B48C0886D4965
:10192000096888421AD268484378C2886A480168C0
:101930004046FFF76EF968480068684908606248E9
:10194000C088654909680844634908605E48C088E2
:1019500060490968081A5F49086042E05D4800680C
:1019600018B90520574908713BE057484378594852
:10197000008882B2584801684046FFF74AF90020C3
:10198000544908602DE0022C21D153480068534986
:101990000968884212D04C484378C288C088DFF872
:1019A00038C1DCF800C0ACEB000103E074E059E0A2
:1019B00037E017E04046FFF72CF912E04248437841
:1019C000C288454801684046FFF723F909E0042C26
:1019D00007D101204249087008203A4908710520C2
:1019E00048716CE00520374948713E4888603F20C7
:1019F00088810D2604E000203A498855701EC6B241
:101A0000002EF8D10020374908702F4803782D4860
:101A10003F2281684046FFF7CCF80620294908712B
:101A20004DE0294801784046FEF7C1FD0446012CEF
:101A30000FD1002026490860052022494871084638
:101A40008078087049464046FFF75AFD1D49C87323
:101A500007E0042C05D1002021490870072019490E
:101A600008712CE0002249464046FFF70FFD05466D
:101A700065B91B480078022803D108201149087174
:101A800009E0104840790F49087104E0042D02D1A3
:101A900002200C49C87312E0012249464046FFF774
:101AA000F5FC054625B9074840790649087104E068
:101AB000042D02D102200349C87300E000BF00BF1B
:101AC000BDE8F087905D0020A05D0020605D0020F3
:101AD00064000020680000206C00002070000020DE
:101AE00074000020805D002010B504462046FEF7FB
:101AF00099FD48B107480849086008484860002037
:101B0000487301200649C87000200649086006494C
:101B1000087010BD55534243605D00205040302096
:101B2000905D0020640000208000002070B5044615
:101B30000D461048407860B10E484178204601F0CB
:101B40008AF90C4841782046FFF7B3F9002009498B
:101B500048700848007860B106480178204601F0D6
:101B60007AF9044801782046FFF7A3F900200149DB
:101B7000087070BDA05D00207CB506460D462C4661
:101B800094F84300082856D194F84500502852D1C3
:101B900094F8520000F0800038B194F852002949BE
:101BA000C870B4F85400888006E094F852002549C3
:101BB0008870B4F85400C88094F85A0000F080008F
:101BC00038B194F85A001F49C870B4F85C00888096
:101BD00006E094F85A001B498870B4F85C00C8808D
:101BE000184881783046FEF7D1FF164948700846FC
:101BF000C1783046FEF7CAFF124908700846C0880F
:101C00000221CDE900102120035D94F820200D4829
:101C10004178304600F02EFB0A4880880221CDE949
:101C200000102120035D94F82020064801783046FA
:101C300000F020FB03E0D4F89010086C80470020EF
:101C40007CBD0000A05D002070B505460326284637
:101C5000FEF7E8FC002855D02B48C078012802D0B8
:101C600002284DD127E03F20284988608020087352
:101C70000A2088732648244988600520887010242B
:101C800005E0002121480F300155601EC4B2002C30
:101C9000F7D11A201D49C8733F211C484174C174F3
:101CA000012019490871072008700320C873022019
:101CB000C870032625E01448C07B80B9144880789A
:101CC00000F0800018B101201249087302E00020E2
:101CD0001049087301200C49C87000260FE00A481B
:101CE000C07B012803D10849C870012607E00648D7
:101CF000C07B022803D101200349C870022600E0FE
:101D000000BF00BF304670BD905D0020605D0020C8
:101D1000FC5D0020EC5D0020FFB581B007460E465B
:101D20001D460320394908703846FEF77BFC002821
:101D300067D03748C078012802D002285FD139E047
:101D4000344885608020334908730A2088733048FE
:101D50008660102405E000212E480F300155601EDA
:101D6000C4B2002CF7D128202A49C8739DF80F105F
:101D7000284841749DF80E1081749DF80D10C174AF
:101D80009DF80C100175C5F34F2000909DF80110CF
:101D9000204881759DF80010C17501201C4908710B
:101DA000072008700320C8730220C8700320174959
:101DB000087025E01648C07B50B93846FEF732FC63
:101DC00030B101201249C87000201049087015E098
:101DD0000F48C07B012807D13846FEF723FC18B115
:101DE00001200B49C87009E00948C07B022805D1D1
:101DF00001200749C87002200449087000E000BFB4
:101E000000BF0248007805B0F0BD0000950000203A
:101E1000905D0020605D002070B5054603262846D1
:101E2000FEF700FC00285AD02E48C078012802D0C6
:101E3000022852D123E008202B49886080200873B3
:101E40000A20887329482749886004208870102454
:101E500005E0002124480F300155601EC4B2002C5B
:101E6000F7D125202049C87301201E490871072099
:101E700008700320C8730220C87003262EE019489A
:101E8000C07BC8B9194800781949C870174840780C
:101E900088701648807848701448C07808701348D5
:101EA0008179134841721148C079114908720120A3
:101EB0000C49C87000260FE00A48C07B012803D1F6
:101EC0000849C870012607E00648C07B022803D1F4
:101ED00001200449C870022600E000BF00BF304660
:101EE00070BD0000905D0020605D0020FC5D002062
:101EF000EC5D002070B5054603262846FEF792FBF0
:101F000000285DD02F48C078012802D0022855D182
:101F10002BE03F202C498860802008730A208873BA
:101F20002A482849886008468078487006208870CA
:101F3000102405E0002124480F300155601EC4B272
:101F4000002CF7D103202049C87300211E480174DA
:101F50003F21C17401201B4908710720087003202C
:101F6000C8730220C870032629E01648C07BA0B9B8
:101F7000164801781648C171144841781448817197
:101F800012488178124841711048C0781049087190
:101F900001200C49C87000260FE00A48C07B0128C8
:101FA00003D10849C870012607E00648C07B022813
:101FB00003D101200349C870022600E000BF00BF22
:101FC000304670BD905D0020605D0020FC5D00200B
:101FD000EC5D002070B5054603262846FEF722FB7F
:101FE000002846D02448C078012802D002283ED1DB
:101FF00024E0002021498860087306208873204867
:102000001D4988603F20888103208870102405E0E6
:1020100000211A480F300155601EC4B2002CF7D1C0
:1020200000201649C8730120134908710720087061
:102030000320C8730220C870032619E00E48C07B35
:1020400020B901200C49C87000260FE00A48C07B67
:10205000012803D10849C870012607E00648C07B63
:10206000022803D101200449C870022600E000BF05
:1020700000BF304670BD0000905D0020605D002014
:10208000805D00202DE9FF4182B007460E461D46C7
:102090004FF003083846FEF7C5FA00285BD03048F9
:1020A000C078012802D0022853D138E02D4885603D
:1020B00000202C4908730A20887329488660102460
:1020C00005E0002127480F300155601EC4B2002CE6
:1020D000F7D12A202349C8739DF813102148417471
:1020E0009DF8121081749DF81110C1749DF81010A4
:1020F0000175C5F34F2001909DF8051019488175B1
:102100009DF80410C1750120154908710720087059
:102110000320C8730220C8704FF003081AE010486B
:10212000C07B28B901200E49C8704FF000080FE0AD
:102130000B48C07B012802D10949C87008E0084853
:10214000C07B022804D101200549C8704FF0020865
:1021500000E000BF00BF404606B0BDE8F0810000CF
:10216000905D0020605D00202DE9F04704460D469B
:1021700017461E46DDE9089827B104F56B7000EBA1
:102180004510077004F56B7000EB4510C0884045A2
:1021900008D0B8F1000F05D004F56B7000EB4510C6
:1021A000A0F8068004F56B7000EB4510C078B042D3
:1021B00005D026B104F56B7000EB4510C6702946BA
:1021C000204600F089FE0020BDE8F08738B50546BE
:1021D000002400200090284601F0A9F8002847D0EC
:1021E000284601F0AEF80090009808B9002038BDEC
:1021F0000098C0F3C00018B1284602F05DF804430F
:102200000098C0F3001018B1284601F0A2FF044363
:102210000098C0F3401018B1284601F0DCFD0443DB
:102220000098C0F3806018B1284601F0FBFE04431B
:102230000098C0F3406018B1284601F0A4F90443A7
:102240000098C0F3006018B1284601F05BFE04431B
:102250000098C0F3407018B1284601F05BF90443C0
:102260000098C0F3405018B1284601F069F90443C2
:102270002046BCE72DE9F04704460D4617461E46AA
:10228000DDE9088904F28C5010F8150000F07F0198
:1022900004F56B7000EB4510417004F28C5010F89F
:1022A0001500C0F3C01104F56B7000EB4510817090
:1022B00004F56B7000EB4510077004F56B7000EBD4
:1022C000451080F8058004F56B7000EB4510A0F810
:1022D000069004F56B7000EB4510C670002104F504
:1022E0006B7000EB4510017604F56B7000EB451048
:1022F00041762EB9012104F56B7000EB4510017198
:102300002946204600F0E8FD0020BDE8F0870000E7
:102310002DE9F04F85B00646894692461D462C466B
:102320000027B84600BF2878307068787070A978A8
:10233000E87801EB0020708028793071687970713D
:10234000A879B071E879F071287A30720E9809286E
:1023500066DD09200090307902285CDCBB4655E040
:1023600069462046FEF7EAFD0446607804284DD110
:10237000A07847B207EBC70000EB090BE078032811
:1023800044DA214602A800F08FF84FF000089DF8CB
:102390000C0003283ADC34E069462046FEF7CEFD07
:1023A0000446607805282CD107EB47000AEBC000F3
:1023B00000EBC80001901C480078B84206D01A49CA
:1023C0000F7002A9584600F06FF80CE0217960798F
:1023D00001EB002015490988884200DA15E002A9BE
:1023E000584600F061F82146019800F04DF8217937
:1023F000607901EB00200D49088008F101004FFAD7
:1024000080F89DF80C004045C6DC00BF7088BDF820
:1024100000108842A4DC00200449088002490870AA
:1024200005B0BDE8F08F0000600000205E000020D5
:1024300010B50B7803704B7843708C78CB7804EB35
:10244000032343800B7903714B7943718B7983713B
:10245000CB79C371082A16DD0C7A4B7A04EB03237F
:1024600003818C7ACB7A04EB032343810C7B4B7B77
:1024700004EB032383818B7B8373CB7BC3730B7C44
:1024800003744B7C437410BD0A7802704A78427022
:102490008A788270CA78C2700B794A7903EB02227B
:1024A00082808A79827170470A7802704A78427015
:1024B0008A788270CA78C2700A7902714A79427148
:1024C0008A798271CA79C2710A7A0272704730B50C
:1024D00013464578032D14D10578AD1E9D4202DCCC
:1024E0000578AD1E00E01D46ACB2801C002204E061
:1024F000855C0D70491C951CAAB2A242F8DB002530
:102500000D7030BD3EB505460C46022002902846AF
:10251000FEF788F830B9207820B12078022801D061
:102520000220207020780B2877D2DFE800F0061018
:10253000A0B94D697D8A598F90002846FEF772F840
:1025400020B101202070642000F01CFAA9E0D4F82A
:1025500090108868804700212846FEF717FB6071BD
:1025600080212846FEF712FB20712846FEF75EF810
:1025700048BBD4F89010C86880472846FEF70DF88D
:10258000C1B221200155042020702122105DD4F811
:10259000902091698847A0790021CDE90010212081
:1025A000035D94F8202021792846FFF763FEA07987
:1025B0000021CDE900102120035D94F820206179ED
:1025C0002846FFF757FE6CE021462846FEF73AFE04
:1025D00028B9D4F89010486B80470820207060E03C
:1025E000D4F89010886B8047012808D1D4F88C006B
:1025F000214602682846904708B90520207050E01F
:10260000D4F88C00214682682846904702909DF8B5
:10261000080018B90620207005E041E09DF8081078
:102620002046FEF72FFC3CE0D4F88C002146C2681F
:102630002846904702909DF808102046FEF722FC9D
:102640002FE021462846FEF7EBFC2AE029E0214650
:102650002846FEF7F4FBD4F8901048688047D4F879
:102660008C0004F1200142682846904719E0D4F814
:1026700090100869804721462846FEF7E0FBD4F811
:10268000901048688047D4F88C0004F1200142681B
:10269000284690472846FEF7C4FB0020207000E043
:1026A00000BF00BF3EBD01460020704770B5064622
:1026B0000C4615460021217505216175E582002132
:1026C0002183618300231A4621463046FEF71FFB13
:1026D00070BD70B506460C461546002121750921CE
:1026E0006175E58200212183618300231A4621461A
:1026F0003046FEF70CFB70BD10B5034618785870D5
:102700000720187099609A8101241C77002010BD61
:102710002DE9F04105460E46174601241148FDF704
:1027200081FFC0B110480078012814D100BF7B029E
:10273000324629460B48FFF7EFFA04460B49094891
:10274000FFF72AF80748FDF76DFF08B9012401E0FB
:10275000032CECD000E0012404B900242046BDE89D
:10276000F081000098090020980000200409002052
:1027700010B50248FDF756FFC0B210BD9809002001
:102780002DE9F04105460E46174601241148FDF794
:1027900049FFC0B110480078012814D100BF7B0266
:1027A000324629460B48FFF76DFC04460B490948A1
:1027B000FEF7F2FF0748FDF735FF08B9012401E0F5
:1027C000032CECD000E0012404B900242046BDE82D
:1027D000F0810000980900209800002004090020E2
:1027E00010B5034608464479082C00D000BF10BD40
:1027F00000200149087070479800002070470000D1
:1028000010B501200D4908601E2002F0D5F8002007
:102810000B49C1F89C02642002F0CEF80120074960
:1028200008601E2002F0C8F800200549C1F89C028B
:102830004FF4FA7002F0C0F810BD00009C824042D4
:102840000080404210B501200D4908601E2002F0B2
:10285000B3F800200B49C1F89C02642002F0ACF8E8
:102860000120074908601E2002F0A6F80020054953
:10287000C1F89C024FF4FA7002F09EF810BD0000FF
:102880009C82404200804042704710B1012800D035
:1028900000BF7047014670477047704710B500246D
:1028A0000B48007810B101280DD103E00120084940
:1028B000087009E001F036FD0446002414B1002040
:1028C0000349087000E000BF00BF204610BD0000B3
:1028D00098000020704770477047704770477047F6
:1028E000012070477047704738B5044643208DF883
:1028F000000000208DF8010003208DF80200012067
:102900008DF803006846FDF71DFF38BD1CB5044671
:1029100001210846FDF766FF01218020FDF772FFC7
:102920004FF4C050009002208DF8040000208DF874
:10293000060003208DF8050000208DF80700694689
:102940000E48FDF7B8FD4FF40040009001208DF8CF
:10295000040000208DF8070069460848FDF7ABFD2C
:102960000120074908600A220B210448FDF7EBFD0E
:102970000A220C210148FDF7E6FD1CBD00000240C3
:10298000BC02404210B50446A0B202F015F810BDDA
:1029900010B50446204602F02BF810BD3EB50446A3
:1029A00000250020029001900090207A01283DD15E
:1029B000E068806B0190019820F480300190607A8B
:1029C00028B1019820F4801000F580100190019842
:1029D000E168886300200290E068C0680290029875
:1029E00020F040000290029820F4800002900298AB
:1029F00020F400300290029820F400200290029807
:102A0000E168C860204600F0C7F8E078012843D1AB
:102A1000009820F01E000A300090009820F020005E
:102A2000203000900098E168886035E0E068C06878
:102A30000290029820F04000403002900298E16835
:102A4000C860204600F0A8F800200190019820F40A
:102A5000803000F580300190019820F4802000F54E
:102A600080200190019820F4002000F500200190C2
:102A7000019820F4001000F500100190607A28B150
:102A8000019820F4801000F5801001900198E16811
:102A900088631420FFF776FFE07801280FD1E06803
:102AA00080680090009820F01E000A300090009886
:102AB00020F02000203000900098E16888602846CF
:102AC0003EBDFEB504460026002500200290019080
:102AD00000902046FFF706FF0021D4F80C010160AA
:102AE000207A012803D1204600F00DFC03E00121EB
:102AF000204600F008FC204600F05BFC606900689E
:102B00000090009820F00400009000996069016036
:102B1000E07A01281DD18020E168486202986FF3B5
:102B20000F0080300290029880B200F5C000029041
:102B30000298E168886201986FF30F00E03001901D
:102B4000019880B200F5C00001900198E168C1F8D9
:102B500000011021204600F021F9204600F0F8F88D
:102B600000250DE04FF0FF3104F1900050F82500F2
:102B70008160002104F1900050F82500C1606D1CB7
:102B80002078A842EED80121204600F04EF82046D9
:102B900000F0A4F83046FEBDF8B504460026002536
:102BA0000020009000BF0320FFF7F2FEE0680069FC
:102BB0000090681C05461349884201D90020F8BDE1
:102BC0000098C00F0028EED00025009820F00100EA
:102BD000401C00900098E168086100BFE06800694F
:102BE0000090681C05460749884200D904E0009817
:102BF00000F001000028F1D100BF0320FFF7C8FE5C
:102C00003046DCE7400D030008B5014600200022F5
:102C10000092009A22F00102521C0092CA68926847
:102C2000009B9A43CB689A6008BD38B505460C46B0
:102C30000020009021462846FFF755FE284600F068
:102C400088FB00900098C0F3003058B9012C09D1DE
:102C5000009820F4805000F5805000900099D5F83D
:102C6000CC0001600098C0F3003040B13CB900983E
:102C700020F4805000900099D5F8CC000160C82065
:102C8000FFF780FE38BD08B500210091491EC268DB
:102C900051606FF08041C2685161009921F000419C
:102CA00001F100410091009921F4006101F50061FA
:102CB00000910099C268916108BD08B501460020E5
:102CC00000220092009A22F00102521C0092CA686F
:102CD0009268009B1A43CB689A6008BD38B50446D9
:102CE000002500200090E1688861401EE16848618D
:102CF0002046FFF7C8FFE07820B9009820F01000C8
:102D000010300090009820F0807000F180700090EA
:102D1000009820F0007000F100700090009820F002
:102D2000005000F100500090009820F0080008309A
:102D30000090009820F4001000F500100090E0686A
:102D40008069009988430843E1688861284638BD56
:102D5000F8B504460025002600200090009820F0D9
:102D60001000103000900098E168086100BFE06832
:102D700000690090701C06460749884200D904E0AB
:102D80000098C0F300100028F1D100BF0320FFF726
:102D9000FFFD2846F8BD0000400D0300F8B50446CD
:102DA0000D460026002700200090009820F020000B
:102DB00020300090009865F38A1000900098E16838
:102DC000086100BFE06800690090781C0746074969
:102DD000884200D904E00098C0F340100028F1D1E7
:102DE00000BF0320FFF7D4FD3046F8BD400D0300BF
:102DF0000146C868406900F0010070471CB50246F2
:102E0000002000230093009B23F0004303F10043C4
:102E100000930124009B64F3DC43009302F19003D0
:102E200053F82130009C1C6102F1900353F82130CB
:102E30001B680193019B23F0004303F100430193BE
:102E4000019B23F08043019302F1900353F821305A
:102E5000019C1C601CBD10B586B0024600200023FA
:102E60000393019302F1900353F821301B68009300
:102E7000009B23F0004303F100430093009B23F0E9
:102E8000804303F180430093009BC3F3814323B14C
:102E9000009BC3F38143022B0BD1D368DB6A0393FE
:102EA000039BC3F307437BB9009B23F000430093CC
:102EB0000AE053691B690193019BC3F307431BB9E4
:102EC000009B23F00043009302F1900353F821305C
:102ED000009C1C6006B010BD3FB5024600200023D8
:102EE0000024029403940194441E009402F190047F
:102EF00054F82140009DA56000240394D478012C4F
:102F000004D1039C24F00404241D039402F56B7483
:102F100004EB4114647934B1012C6AD0022C03D043
:102F2000032C38D138E000BF039C24F00104641C5A
:102F30000394039C24F0080408340394039C24F0B5
:102F4000800480340394039C24F4806404F580643A
:102F50000394039C24F010041034039402F56B7462
:102F600004EB4114A47834B1039C24F4807404F578
:102F7000807403940FE0039C24F0400440340394D5
:102F800002F56B7404EB4114247924B1039C24F002
:102F90002004203403944EE0039C24F00104641CBC
:102FA0000394039C24F0100410340394039C24F035
:102FB000080408340394039C24F0800480340394B0
:102FC000039C24F4806404F580640394039C24F43B
:102FD000007404F50074039402F56B7404EB41145F
:102FE000A4782CB1039C24F4807404F580740394B9
:102FF00021E0039C24F00104641C0394039C24F44A
:10300000007404F500740394039C24F0200420341D
:10301000039402F56B7404EB4114A47854B1039C3F
:1030200024F0800480340394039C24F4807404F519
:103030008074039400BF00BF02F1900454F8214053
:10304000039DE560012404FA01F35469A4691C435B
:103050005569AC61029C24F0007404F10074029480
:10306000D468A469029D2C43D568AC610024019406
:1030700002F56B7404EB41142578019C65F39C54B4
:10308000019402F56B7404EB41146578019C65F3BF
:10309000CE24019402F56B7404EB4114A578019CD5
:1030A00065F3CF34019402F56B7404EB4114E478BA
:1030B000022C01D1012500E00025019C65F351445B
:1030C000019402F56B7404EB41146579019C65F37E
:1030D0009344019402F56B7404EB4114E588019C60
:1030E00065F30A04019402F56B7404EB41146479EE
:1030F000032C05D1019C24F0005404F100540194E8
:1031000002F1900454F82140019D256004B030BDC7
:103110002DE9F04388B004460D464FF00009C8463B
:103120004FF48077002006900790009004F56B70B4
:1031300000EB4510006910B304F56B7000EB45100F
:10314000016904F56B7000EB4510C0880144491E0D
:1031500004F56B7000EB4510C088B1FBF0F086B24F
:10316000BE420DDD3E4604F56B7000EB4510C18894
:10317000714304F56B7000EB4510016100E001261E
:1031800004F56B7000EB4510807850B104F56B705E
:1031900000EB4510C188714304F56B7000EB4510DE
:1031A000016104F56B7000EB45100169069861F34D
:1031B00012000690069866F3DC40069004F56B70EA
:1031C00000EB4510017A069861F35E70069004F1F9
:1031D000900050F8250006990161E078012809D196
:1031E00004F56B7000EB4510C16804F1900050F8D5
:1031F0002500416104F1900050F825000068079017
:10320000204600F08CF8079960F35D7107910798EC
:1032100020F0004000F100400790079820F0804027
:10322000079004F1900050F8250007990160E078BC
:10323000002864D104F56B7000EB451080780028FD
:103240005DD104F56B7000EB45100069002856D085
:1032500004F56B7000EB4510407930B1012821D0A6
:10326000022803D0032839D11BE000BFE068C06A00
:10327000039004F56B7000EB45100069C01CC0F3AF
:103280008F08039880B240450ADA009820F02000A9
:1032900020300090E068806900990843E168886107
:1032A0001DE000BF60690069019004F56B7000EBE0
:1032B00045100069C01CC0F38F08019880B24045DA
:1032C0000BDA009820F0806000F180600090E068E8
:1032D000806900990843E168886100E000BF00BF91
:1032E00004F56B7000EB4510008A83B204F56B7037
:1032F00000EB45102A46C168204600F0F3FF48461F
:1033000008B0BDE8F08308B5426912680092009ADF
:1033100061F301020092009B4269136008BD0146FF
:103320004869806800F0010080F00100704700B536
:1033300002461046FFF75CFD012800D100BD0020C9
:10334000FCE701460020CA685069CA6892691040CB
:10335000704708B50146D1F8CC000068009000988D
:1033600020F004000090009820F0020000900098E7
:1033700020F008000090009820F0200000900098B5
:1033800008BD0146486940697047F0B5034600240E
:10339000D01CC71700EB9777BD10D3F8D06000BFE3
:1033A00003E030680860641C091DAC42F9D308468C
:1033B000F0BD38B504462046FFF7CBFF00900098DB
:1033C00020F4807000F5807000900099D4F8CC0053
:1033D00001600A20FFF7D6FA009820F48070009070
:1033E0000099D4F8CC0001601420FFF7CBFA01203B
:1033F00038BD000070B502460C46002300200025B1
:10340000D5700125957040259580012C0CD14FF089
:10341000A0430125D57208251570042555709D150A
:10342000D580022515720AE04CB9254B0025D572CE
:103430000C251570062555704FF4A065D580D36016
:1034400003F500651561002110E003F5106505EB3B
:10345000411602F1180545F8216003F5306505EBCA
:10346000411602F1540545F82160491C55788D42FA
:10347000EBD803F5806555614035C2F8CC5000218A
:1034800008E003F5A06505EB411602F1900545F84B
:103490002160491C15788D42F3D8002108E003F51E
:1034A000805505EB013602F1D00545F82160491C35
:1034B00015788D42F3D803F56065C2F80C5170BDE4
:1034C00000000440F8B504460D460026E068C068D8
:1034D0000090009820F000500090009820F080406C
:1034E0000090012D06D1009820F0005000F100500E
:1034F000009006E02DB9009820F0804000F1804057
:1035000000900098E168C8603220FFF73BFA30462F
:10351000F8BD000038B50446002000900748006858
:10352000816820468847009820F0005000F1005044
:1035300000900098E1684861012038BD58000020E3
:103540000CB50146D1F8900000680090009820F07A
:10355000004000F100400090009820F0804000F111
:1035600080400090009AD1F8900002600020019005
:10357000019820F4001000F5001001900198CA682D
:10358000506101200CBD7CB505460024002628466C
:10359000FFF7F7FE019000BF1BE0019880B2012108
:1035A000A1400840A0B105F1900050F82400006847
:1035B00000900098C0F3C03028B12146284600F0A2
:1035C0000DF8064304E02146284600F01CFA0643A5
:1035D000641C2878A042E0D830467CBD70B586B027
:1035E00005460C4605F1900050F82460B06805903F
:1035F000F0680490DDE904100840059005F19000A2
:1036000050F8240000680390002004900598C0F34F
:103610008000D0B100200190019820F00400001D2E
:1036200001900198B06005F1900050F82400C06846
:103630000190019820F00200801C019005F190009B
:1036400050F824000199C16073E00598C0F3401060
:1036500048B100200190019820F020002030019016
:103660000198B06065E00598C0F3C00078B305F13B
:10367000900050F82400C0680190019820F00200EA
:10368000801C019005F1900050F824000199C16060
:10369000052105F56370015500200190019820F087
:1036A0001000103001900198B06000200190019846
:1036B00020F00800083001900198B060059820F0D3
:1036C00010000590E1B22846FFF7C5FB31E0FFE7A7
:1036D0000598C0F3802060B305F1900050F82400F5
:1036E000C0680190019820F00200801C019005F153
:1036F000900050F824000199C160E1B22846FFF71C
:10370000AAFB00200190019820F0100010300190D9
:103710000198B060082105F5637001550020019003
:10372000019820F4806000F5806001900198B060FD
:1037300000BF0598C0F34020F8B105F1900050F8A3
:103740002400C0680190019820F00200801C0190C4
:1037500005F1900050F824000199C160E1B22846BB
:10376000FFF779FB00200190019820F4007000F52C
:10377000007001900198B06042E1059800F00100EE
:10378000002871D0E878012812D105F1900050F896
:1037900024000069029005F56B7000EB441000698D
:1037A0000299C1F31201411A05F5547040F8241032
:1037B000012105F5637001550021783840F8241087
:1037C00000200190019820F00100401C0190019818
:1037D000B0600398C0F3814020B10398C0F38140EA
:1037E00002282AD105F1900050F82400C068019009
:1037F000019820F00200801C019005F1900050F823
:1038000024000199C160E1B22846FFF724FB0020A3
:103810000190019820F01000103001900198B060E4
:1038200005F56B7000EB4410007E80F0010105F59A
:103830006B7000EB44100176E2E00398C0F3814026
:10384000032899D1039820F0005000F10050039014
:1038500005F1900050F8240003990160012105F260
:103860009B300155CCE0FFE70598C0F340000028ED
:1038700051D005F1900050F82400C06801900198E3
:1038800020F00200019005F1900050F82400019909
:10389000C16005F56370005D012804D1012105F2C6
:1038A0009B3001552DE005F56370005D052804D1BE
:1038B000042105F29B30015523E005F56370005D9E
:1038C000062804D005F56370005D082808D10021A2
:1038D00005F5457040F8241003218730015510E0AC
:1038E0000398C0F3814003280BD105F56B7000EB02
:1038F0004410007E80F0010105F56B7000EB441070
:10390000017600200190019820F00200801C0190B7
:103910000198B06074E00598C0F3C01040B305F1A1
:10392000900050F82400C0680190019820F0020037
:10393000801C019005F1900050F824000199C160AD
:1039400005F5457050F82410491C40F82410062154
:1039500078300155E1B22846FFF77DFA002001904A
:10396000019820F08000803001900198B06047E01D
:103970000598C0F30010E8B30398C0F38140032812
:1039800015D105F1900050F82400C068019001980D
:1039900020F00200801C019005F1900050F82400F6
:1039A0000199C160E1B22846FFF755FA18E0039883
:1039B000C0F3814020B10398C0F3814002280FD1A9
:1039C000039820F0004000F100400390039820F09D
:1039D0008040039005F1900050F8240003990160A5
:1039E000032105F56370015500200190019820F036
:1039F000100000E004E0103001900198B06000BFBA
:103A0000012006B070BD7FB505460C4605F190005B
:103A100050F82460B0680390F0680290DDE902106D
:103A20000840039005F1900050F8240000680190D0
:103A30000398C0F38000D0B100200090009820F0DF
:103A40000400001D00900098B06005F1900050F84F
:103A50002400C0680090009820F00200801C0090B4
:103A600005F1900050F824000099C160B0E103987E
:103A7000C0F3401048B100200090009820F02000D2
:103A8000203000900098B060A2E10398C0F340207D
:103A9000F8B105F1900050F82400C068009000983B
:103AA00020F00200801C009005F1900050F82400E6
:103AB0000099C160E1B22846FFF7CDF900200090DF
:103AC000009820F4007000F5007000900098B0603D
:103AD0007EE1039800F0010038B3002105F5457040
:103AE00040F8241005F1900050F82400C0680090C0
:103AF000009820F00200801C009005F1900050F822
:103B000024000099C160E1B22846FFF7A4F9002023
:103B10000090009820F00100401C00900098B060D8
:103B2000012105F56370015552E10398C0F3C0000F
:103B300010B300200090009820F00800083000909A
:103B40000098B06005F1900050F82400C068009023
:103B5000009820F00200801C009005F1900050F8C1
:103B600024000099C160E1B22846FFF774F90521ED
:103B700005F5637001552BE10398C0F3001038B3CD
:103B8000002105F5457040F8241005F1900050F82B
:103B90002400C0680090009820F00200801C009073
:103BA00005F1900050F824000099C160E1B2284668
:103BB000FFF751F900200090009820F0100010301D
:103BC00000900098B060032105F563700155FFE097
:103BD0000398C0F3C01040B305F1900050F82400E2
:103BE000C0680090009820F00200801C009005F151
:103BF000900050F824000099C160E1B22846FFF718
:103C00002AF905F5457050F82410491C40F8241095
:103C100006217830015500200090009820F08000A7
:103C2000803000900098B060D2E00398C0F380101C
:103C300038B3002105F5457040F8241005F19000D7
:103C400050F82400C0680090009820F00200801C0A
:103C5000009005F1900050F824000099C160E1B295
:103C60002846FFF7F8F800200090009820F0400068
:103C7000403000900098B060042105F56370015554
:103C8000A6E00398C0F3802060B305F1900050F8DF
:103C90002400C0680090009820F00200801C009072
:103CA00005F1900050F824000099C160E1B2284667
:103CB000FFF7D1F800200090009820F0100010309D
:103CC00000900098B060082105F563700155002050
:103CD0000090009820F4806000F5806000900098CB
:103CE000B06075E00398C0F34000002870D005F183
:103CF000900050F82400C0680090009820F0020066
:103D0000009005F1900050F824000099C16005F57D
:103D10006370005D012815D1012105F29B3001552A
:103D20000198C0F38140022848D105F56B7000EB83
:103D30004410407E80F0010105F56B7000EB4410EB
:103D400041763BE005F56370005D032804D1022154
:103D500005F29B30015531E005F56370005D0428E4
:103D60000FD105F56B7000EB44100079012803D1E9
:103D7000E1B22846FFF742F8022105F29B300155D7
:103D80001CE005F56370005D052804D1042105F2EF
:103D90009B30015512E005F56370005D06280DD1DA
:103DA00005F5457050F82400032807D1032105F2DA
:103DB0009B3001550021873840F8241000200090E6
:103DC000009820F00200801C00900098B06000BFB6
:103DD000012004B070BD7FB50446E068C06A009061
:103DE0000198C0F3C30104F56B7000EB411000694A
:103DF000C01CC0F38F0673E04FF6FF71009801EA14
:103E000080050198C0F3C30104F56B7000EB41100D
:103E10000069A84215D20198C0F3C30104F56B7084
:103E200000EB4110008A85B200200390039820F037
:103E3000200020300390E068806903998843E1689E
:103E400088610198C0F3C30104F56B7000EB411069
:103E50000069C01CC0F38F060198C0F3C302C0F311
:103E6000C30304F56B7000EB43102B46C16820467A
:103E700000F038FA0198C0F3C30104F56B7000EB51
:103E80004110C06841190198C0F3C30204F56B707A
:103E900000EB4210C1600198C0F3C30104F56B70E0
:103EA00000EB41100069411B0198C0F3C30204F507
:103EB0006B7000EB421001610198C0F3C30104F57F
:103EC0006B7000EB4110406941190198C0F3C302C7
:103ED00004F56B7000EB42104161E068C06A00902D
:103EE000009880B2B0420ADD0198C0F3C30104F526
:103EF0006B7000EB4110006900287FF47DAF01205A
:103F000004B070BDFEB504460026002500200090D8
:103F100002900190D4F8CC0000680290D4F8CC0054
:103F200000680190019820F004000190019820F0B1
:103F300002000190019820F008000190019820F003
:103F4000200001900298C0F3400058B1019820F081
:103F50000200801C01903248006841682046884772
:103F600045F001050298C0F3C000002842D0019836
:103F700020F00800083001900298C0F3800000286B
:103F800038D0274800684168204688470298C0F327
:103F90004140022804D00298C0F34140012828D1B2
:103FA0006069006800900298C0F34140022811D176
:103FB00041F2707160694160009800F003000228CE
:103FC00018D0207A022803D102212046FFF79BF95E
:103FD00001260FE04BF6803160694160009800F0E7
:103FE0000300012806D001212046FFF78CF90126A5
:103FF00000E001260298C0F3401030B1019820F093
:1040000020002030019045F0010516B12046FFF751
:10401000D0F90199D4F8CC0001602846FEBD00001B
:1040200058000020FEB504466069006900900198C0
:10403000C0F3C30104F56B7000EB41100069C01CB4
:10404000C0F38F0674E04FF6FF71009801EA800517
:104050000198C0F3C30104F56B7000EB41100069D7
:10406000A84216D20198C0F3C30104F56B7000EBAF
:104070004110008A85B200200290029820F08060F2
:1040800000F180600290E068806902998843E168ED
:1040900088610198C0F3C30104F56B7000EB411017
:1040A0000069C01CC0F38F060198C0F3C302C0F3BF
:1040B000C30304F56B7000EB43102B46C168204628
:1040C00000F010F90198C0F3C30104F56B7000EB28
:1040D0004110C06841190198C0F3C30204F56B7028
:1040E00000EB4210C1600198C0F3C30104F56B708E
:1040F00000EB41100069411B0198C0F3C30204F5B5
:104100006B7000EB421001610198C0F3C30104F52C
:104110006B7000EB4110406941190198C0F3C30274
:1041200004F56B7000EB421041616069006900901A
:10413000009880B2B0420ADD0198C0F3C30104F5D3
:104140006B7000EB4110006900287FF47CAF012008
:10415000FEBD30B585B00446002000900390039862
:1041600020F0100010300390E068806903998843C4
:10417000E1688861E068006A0490049800F00F002C
:10418000009004F190009DF8001050F821000068A4
:1041900001900498C0F34340022806D0032878D049
:1041A000052877D0072873D175E00498C0F30A106A
:1041B000002869DD04F56B709DF8001000EB4110DC
:1041C000C068002860D00498C0F30A1204F56B7030
:1041D0009DF8003000EB4310C1682046FFF7D5F88A
:1041E000049800F00F0104F56B7000EB4110C068FB
:1041F0000499C1F30A110144049800F00F0204F578
:104200006B7000EB4210C160049800F00F0104F5E0
:104210006B7000EB411040690499C1F30A1101442D
:10422000049800F00F0204F56B7000EB421041613E
:1042300004F56B709DF8001000EB4110456904F522
:1042400054709DF8001040F8215004F190009DF842
:10425000001050F82100006902900298C0F3C94094
:10426000002811DD019820F0004000F1004001908D
:10427000019820F08040019004F190009DF800200A
:10428000019950F82200016006E002E002E0FFE739
:1042900000BF00BF00BF00BF00BF039820F01000A8
:1042A00010300390E068806903990843E1688861F1
:1042B000012005B030BD000038B504460020009054
:1042C00007480068016820468847009820F00800E9
:1042D000083000900098E1684861012038BD000076
:1042E000580000202DE9F04104460026E078B0B9DE
:1042F00000270020DD1C4FEAE57805EB98784FEAAF
:10430000A80704F1D00555F822C000BF04E00D68ED
:10431000CCF80050401C091DB842F8D300BF30460D
:10432000BDE8F0812DE9FC470027B84600240026AF
:104330000025A1460020424908606A4601A941A023
:1043400000F029FE0746002F64D101213EA001F0B4
:10435000A5FE8046B8F1000F59D100BF01F024FF3F
:1043600001F01CFF0646002001F08EFE2FE0301BFE
:10437000B0F5006F15D2301B85B2284601F09CFEC7
:1043800070B901F019FF0446C4F30A00A8421ED117
:1043900033492144481B2A46324901F0EDFD16E01D
:1043A00017E04FF4006001F087FE78B901F004FFD8
:1043B0000446C4F30A0050B929492144A1F500601C
:1043C0004FF40062274901F0D7FD00E001E0B4425C
:1043D000CDD300BF01F04EFE2148406800F07F4081
:1043E000B0F1006F18D10120154908604FF4FA7040
:1043F00000F0E2FA00201C49C1F89C02FBF715FF0F
:10440000642000F0D9FA164801F0A0FD04E04FF056
:10441000010901E04FF001090AE00948006808B904
:10442000012000E0002006490860322000F0C4FAB4
:104430000E48FCF7F7F80028EFD13846BDE8FC87B6
:104440009C824042303A0000303A2F4941505F424E
:10445000494E2F4941505F4150502E62696E000015
:1044600000800008E40000200080404298090020FD
:1044700000BFFEE700BF70471CB501210220FCF71A
:10448000B1F98020009001208DF8040000208DF803
:10449000060003208DF8050002208DF8070069460C
:1044A0000348FCF708F880210148FCF76FF81CBDB1
:1044B0000004024070B504460D4600202071401EE5
:1044C000E0622946204601F07DFE08B1032070BD60
:1044D00094F82E1294F82F0241EA00204AF6552152
:1044E000884201D00220F2E794F86900010694F8AE
:1044F000680041EA004194F8670041EA002094F81E
:104500006610084320F07F400D49884201D1002009
:10451000DDE794F88500010694F8840041EA004143
:1045200094F8830041EA002094F88210084320F0B8
:104530007F400349884201D10020C8E70120C6E737
:1045400046415400024600E0521C107810B1107829
:104550008842F9D11078704770B503460D46586A05
:10456000021D680A1E68B678B0FBF6F400BF02CAE6
:1045700009B9002070BD8C4200D202E0641A121DFD
:10458000F5E700BF10682044F4E70246891E506931
:10459000801E884201D8002070479378906A01FB02
:1045A0000300F9E72DE9F04705460C46207820F096
:1045B0004000401E00EB800101EBC00600274FF0D9
:1045C000010800BF1A48C05D205C1949C95D21443B
:1045D000497840EA0129B8F1000F10D0484601F0AF
:1045E0004FF98046FF2E07D23146761C35F8110070
:1045F00001F046F9404508D00020BDE8F0874FF6AD
:10460000FF70814501D00020F7E7781C07460D2890
:10461000D8D3207800F0400038B1B8F1000F04D0B2
:1046200035F8160008B10020E7E70120E5E70000B3
:104630007C6700082DE9F04704468946B9F1000F70
:1046400006D1E76817B16069B84215D8012713E0B1
:104650004946204601F0E0FB0646022E02D2012028
:10466000BDE8F087701C08B93046F9E76069B042D0
:1046700001D93046F4E74F463D4600BF6D1C6069E6
:10468000A84204D80225BD4201D90020E8E7294606
:10469000204601F0C1FB064606B909E0701C08B1CE
:1046A000012E01D13046DBE7BD42E7D10020D7E73C
:1046B00000BF6FF070422946204601F099FE804607
:1046C000B8F1000F08D1B9F1000F05D02A464946CC
:1046D000204601F08DFE8046B8F1000F0BD1E56059
:1046E0002069401C78B12069401E2061607940F04B
:1046F0000100607107E0B8F1010F02D14FF0FF3007
:1047000000E0012005462846AAE700002DE9F34F06
:1047100083B0814604980068019002E00198401C33
:104720000190019800782F28F8D0019800785C2833
:10473000F4D0D9F81CA000252F4600BF38467F1CB6
:1047400001990C5C202C03DB2F2C01D05C2C00D1B8
:1047500032E0FF2D03D3062005B0BDE8F08FE4B2B0
:10476000812C13DBE0B2FE2810DC38467F1C019957
:104770000E5C402E01DB7E2E05DD802E01DBFE2E41
:1047800001DD0620E8E706EB042084B20121204683
:1047900001F060F804460CB90620DDE7802C06DA4B
:1047A000214671A0FFF7CEFE08B10620D4E72846C7
:1047B0006D1C2AF81040C1E700BF0198C119049888
:1047C0000160202C01DA042000E00020804608E08F
:1047D000681E3AF81040202C02D02E2C00D002E0A7
:1047E0006D1E002DF4D100BF0DB90620B4E70020E6
:1047F0002AF815000B222021D9F8180001F02FFC0F
:10480000002700E07F1C3AF817002028FAD03AF879
:1048100017002E28F6D00FB148F0030800E06D1EF7
:1048200025B1681E3AF810002E28F8D1002006465F
:1048300002904FF0080B00BF38467F1C3AF810403A
:1048400004B963E0202C03D02E2C04D1AF4202D057
:1048500048F00308F0E70298584501D2AF4214D15E
:10486000BBF10B0F02D148F003084FE0AF4201D07B
:1048700048F00308AF4200D948E02F4608200290D4
:104880004FF00B0BB006060ED6E7802C09DB204656
:1048900000F0F6FF0021009000F0DCFF044648F035
:1048A0000208FF2C11DDABF101000299884204D807
:1048B00048F00308CDF808B0BEE72212D9F8183046
:1048C0000298411C02911A5419E024B1214629A0F2
:1048D000FFF738FE18B15F2448F003080FE0412CC1
:1048E00004DB5A2C02DC46F0020608E0612C06DBF1
:1048F0007A2C04DC46F00106A4F1200084B2D9F839
:1049000018300298411C02911C5495E700BFD9F859
:1049100018000078E52803D10520D9F81810087090
:10492000BBF1080F01D1B006060E06F00C000C28F2
:1049300003D006F00300032801D148F0020808F074
:10494000020058B906F00300012801D148F0100810
:1049500006F00C00042801D148F00808D9F8180026
:1049600080F80B800020F7E6222A3A3C3E3F7C7F0D
:10497000000000002B2C3B3D5B5D000010B50446A1
:104980006FF00400FCF766F8E11704EB5171C1F316
:10499000C701074A11701046007800EB4001C1EBD7
:1049A000C0104FF6FF7101EAC0000249088010BD37
:1049B000040000200600002070B504464FF4077084
:1049C00094FBF0F0C6B24FF4077094FBF0F100FBDB
:1049D000114085B205E04FF4077000F02FF8701E0B
:1049E000C6B2002EF7D115B1284600F027F870BDE9
:1049F0000146114A12784A434FF0E0235A610022DF
:104A00009A611A46126942F001021A6100BF4FF022
:104A1000E022106900F001021AB100F48032002A8D
:104A2000F5D04FF0E022126922F001024FF0E023AE
:104A30001A6100229A617047040000200146114A61
:104A400012884A434FF0E0235A6100229A611A46C5
:104A5000126942F001021A6100BF4FF0E0221069B2
:104A600000F001021AB100F48032002AF5D04FF0B4
:104A7000E022126922F001024FF0E0231A610022C5
:104A80009A617047060000202DE9F04104460E4669
:104A90000021204600F0B8F90546EDB9002700BF17
:104AA0002169206801F08EFB054605B113E06069BD
:104AB0000078E52802D06069007820B9781C0746A4
:104AC000B04201D107E000270121204600F07FF825
:104AD0000546002DE4D000BF042D00D1072528464F
:104AE000BDE8F0812DE9F04704460021204600F0A2
:104AF0008BF9074617B13846BDE8F0874FF0FF093C
:104B0000CA464FF6FF70208400BF2169206801F07B
:104B100059FB074607B157E065692E780EB904279F
:104B200052E0E87A00F03F08E52E05D008F00800D2
:104B300040B1B8F10F0F05D04FF0FF094FF6FF70ED
:104B400020843AE0B8F10F0F1CD1E06978B306F089
:104B5000400030B195F80DA026F04006B146E0883F
:104B600020844E450AD1687B504507D12946E0692B
:104B7000FFF718FD10B1A9F1010000E0FF2000F0DF
:104B8000FF091AE0B9F1000F05D1284601F009FD2F
:104B9000504500D118E0A069C07A00F0010038B992
:104BA0000B222846A16901F03AFA08B90CE004E0AA
:104BB0004FF0FF094FF6FF7020840021204600F0DF
:104BC00006F80746002FA0D000BF384694E72DE92D
:104BD000F04104468846E088461CB0B208B120691E
:104BE00010B90420BDE8F08106F00F0000286CD158
:104BF0002069401C2061E06828B920680089B04223
:104C000063D80420EEE720688078401E00EA161082
:104C100000285AD1E168206801F0FEF80546012D10
:104C200001D80220DEE7681C08B90120DAE7206815
:104C30004069A84243D8B8F1000F01D10420D1E760
:104C4000E1682068FFF7F6FC05460DB90720C9E7C3
:104C5000012D01D10220C5E7681C08B90120C1E778
:104C6000206801F012FD08B10120BBE7216801F1C5
:104C700030004FF40072002101F0F1F9294620685C
:104C8000FFF783FC2168C86200270EE0012021683D
:104C90000871206801F0F9FC08B10120A2E7206842
:104CA000C06A401C2168C8627F1C20688078B842B6
:104CB000ECD82068C06AC01B2168C86200BFE560EC
:104CC00029462068FFF761FC2061E68020683030CB
:104CD00006F00F0100EB41106061002082E72DE932
:104CE000FE4F0446D4F81880D4F81C900C2241469C
:104CF000684601F0A7F900BF9DF80B0000F0010025
:104D000020B3002088F80B00E06101260CE0334658
:104D10004A466946404601F01BF82046FFF7E2FE8E
:104D2000054605B102E0761C642EF0D300BF642E68
:104D300002D10720BDE8FE8F042D01D02846F9E7F7
:104D40009DF80B0088F80B00C4F81C909DF80B0030
:104D500000F0020060B1002600E0761C39F8160071
:104D60000028FAD106F119000D21B0FBF1F700E09F
:104D7000012739462046FFF787FE054645BB781ECA
:104D8000071E25D0E088C11B204600F03DF80546EF
:104D9000F5B9A06901F005FC824600BF21692068D1
:104DA00001F010FA054605B111E0FAB25346616907
:104DB000E06900F045FF01202168087100212046CC
:104DC000FFF705FF054615B9781E071EE6D100BF9F
:104DD000C5B92169206801F0F5F9054695B9202289
:104DE0000021606901F03BF90B22D4E9050101F0D3
:104DF00029F9A069C07A00F01800616908730120E0
:104E000021680871284695E72DE9F04104460E46D1
:104E1000E680A568012D03D020684069A84202D829
:104E20000220BDE8F0812DB920680078032801D167
:104E30002068456A45B920680089B04201D802203F
:104E4000EFE72068476A1EE0206880784FEA001884
:104E500012E02946206800F0DFFF0546681C08B90B
:104E60000120DEE7022D03D320684069A84201D863
:104E70000220D6E7A6EB08064645EAD22946206876
:104E8000FFF783FB0746E5600FB90220C9E707EB90
:104E9000161020612068303006F00F0100EB411041
:104EA00060610020BDE770B50446002534B9FDF708
:104EB0005FFC08B1002070BD0120FCE7012500BFA8
:104EC00000BF0DB10120F6E70020F4E710B503465E
:104ED000DBB931B1012910D0022904D0032911D145
:104EE00006E0002010E04FF40074148000200BE076
:104EF0004FF400741480002006E0054C2468146010
:104F0000002001E0042000BF00E0012010BD0000EF
:104F1000EC5D00202DE9F04105460E4617461C4683
:104F20004FF0000814B90420BDE8F08135B92246DD
:104F300039463046FDF7ECFB804602E04FF00108B1
:104F400000BF00BFB8F1000F01D10020ECE7012045
:104F5000EAE70146002070472DE9F04105460E467C
:104F600017461C464FF0000814B90420BDE8F08134
:104F700035B9224639463046FDF702FC804602E04C
:104F80004FF0010800BF00BFB8F1000F01D10020B1
:104F9000ECE70120EAE72DE9FC4707460C461546F9
:104FA000002000908046814601AA6946384600F0FC
:104FB0006BF806468EB901984069801E0199897880
:104FC00000FB01F901988078009900FB01F84FEA95
:104FD000590020604FEA580028603046BDE8FC8741
:104FE00010B500240EE04FF40C71002001F0E2F93E
:104FF000184941F82400084650F8240000B903E09D
:10500000601CC4B2012CEEDB00BF4FF40A7100201B
:1050100001F0D0F9104908604FF40A71002001F046
:10502000C9F90E4908604FF40071002001F0C2F97F
:105030000B490860012C0AD10748006838B10748BD
:10504000006820B10846006808B1002010BD0120AA
:10505000FCE700002C00002030000020340000207D
:105060004000002070B50546284600F09BFB044632
:1050700044B9284601F050FB04460CB900202860D2
:10508000204670BD2046FCE72DE9F74F82B08A46E6
:10509000002202A9049800F00FFC01900498046813
:1050A000019800286DD1D4E90410801E814203D8F4
:1050B0002069CAF8000064E094F800B00026BBF153
:1050C000010F1CD1022700BF3946204600F0A4FE84
:1050D000804608F1010010B9012001900EE0B8F1FE
:1050E000010F02D10220019008E0B8F1000F00D1B9
:1050F000761C781C074661698842E5D33AE0676907
:10510000206A00904FF00009002500BFB9F1000FA0
:105110000ED10098421C01462046009201F052F840
:105120000190019800B124E004F130054FF40079BA
:10513000BBF1020F09D12878697840EA012000B953
:10514000761CAD1CA9F1020910E0E8780006A978E8
:1051500040EA0140697840EA01202978084320F0BC
:10516000704000B9761C2D1DA9F10409781E071E98
:10517000CCD100BF2661607940F001006071CAF8AF
:105180000060019805B0BDE8F08F2DE9FE4F0446A0
:105190000D46204601F0C0FA0290029810B1029824
:1051A000BDE8FE8FE07908B1E079F9E7606A002890
:1051B00071D0681C00283BD1D4F8248058F804AB87
:1051C0004FF0020926693EB300BF00964FF0000B76
:1051D00009F1020900BF01960BF1010B314620686D
:1051E00000F01AFE0646012E02D80220E071D7E731
:1051F000701C10B90120E071D2E70198401C864272
:10520000E9D0D14504D848F804BB009848F8040B0D
:1052100020684069B042D8D8606AC0F80090D14593
:1052200003D80020C8F8000047E01120029044E0B5
:10523000E068A84200D2E568A560002D3DD0691E57
:105240002046FFF789F9606161692068FFF79DF9E1
:10525000074617B90220E071A2E720688078401E57
:10526000691E00EA512007442089C0F3080020B3DA
:10527000A069B84221D0A07900F0400080B1216837
:105280004878012304F12801A269FFF765FE18B1EF
:105290000120E07184E711E0A07920F04000A071C6
:1052A0002168487801233A4604F12801FFF732FECD
:1052B00010B10120E07173E7A761ABE0E068A8429C
:1052C00004D2A07900F0020000B9E568D4F8089093
:1052D0004FF00008C4F80880002D67D0206880785F
:1052E0004702B9F1000F11D0681EB0FBF7F1A9F128
:1052F0000100B0FBF7F0814208D3A9F10100791E4B
:105300008843A060A0682D1A666912E026697EB9FC
:1053100000212068FFF78EF90646012E02D10220F7
:10532000E0713DE7701C10B90120E07138E726619B
:105330006661C6B323E0A07900F0020038B13146BF
:105340002068FFF777F9064636B93D4619E0314641
:10535000206800F061FD0646701C10B90120E07164
:105360001EE7012E03D920684069B04202D802200E
:10537000E07115E76661A0683844A060ED1BBD428E
:10538000D9D800BFA0682844A060C5F3080050B178
:1053900031462068FFF7F9F88046B8F1000F03D1D5
:1053A0000220E071FCE601E008EB55282089C0F3FB
:1053B000080020B3A069404521D0A07900F040004A
:1053C00078B121684878012304F12801A269FFF728
:1053D000C3FD10B10120E071E2E6A07920F04000A9
:1053E000A071216848780123424604F12801FFF7A3
:1053F00091FD10B10120E071D2E6C4F81880D4E923
:105400000201884205D9A068E060A07940F0200040
:10541000A07100BF0298C3E6F7B582B016460398A4
:10542000019001A800F06EFD0546002D02DA0B2068
:1054300005B0F0BD0E4850F825400CB1002020709A
:10544000029810B10020029908700949029841F8A9
:105450002500029808B1012E01D00020E8E70022C3
:1054600003A902A800F028FA07463846E0E7000042
:10547000440000202DE9F7478DB0054616461DB9BA
:10548000092010B0BDE8F0870020286006F01F0654
:1054900026F001020EA904A800F00EFA0746002F1C
:1054A00073D14FF4007000F0DDF98146B9F1000FBF
:1054B00001D11120E5E7CDF82C9001A80A9004A8AD
:1054C0000E9900F0FDFB0746099C0FB904B90627A9
:1054D00006F01C00002851D04FB1042F03D104A8BE
:1054E000FFF7FDFB074646F00806099C09E0E07A55
:1054F00000F0110008B1072703E006F0040000B136
:105500000827002F39D106F00800002835D000F018
:10551000F7FC804684F80E804FEA1821E1734FEAC9
:10552000184121744FEA186161740020E0722077FD
:1055300000216177A177E1772146049800F050FDC2
:1055400082460021204601F024F8012004990871C8
:10555000BAF1000F11D00498D0F82C80514604986D
:1055600000F0E1FF074647B9AAF101000499C860BD
:105570004146049800F026FE07460FE077B9E07A2E
:1055800000F0100010B1042708E031E006F002003E
:1055900020B1E07A00F0010000B1072747B906F01A
:1055A000080008B146F020060498C06AE8612C6241
:1055B000484600F05EF9DFB9AE710020E87121467F
:1055C000049800F00DFD2861E07F0106A07F41EA0C
:1055D0000041607F41EA0020217F0843E86000200D
:1055E000A860A8616862049828602868C088A880BC
:1055F000384646E72DE9FF4F83B0044615469A46E4
:10560000DDF810B00020CAF80000204601F084F850
:105610000290029818B1029807B0BDE8F08FE079C7
:1056200008B1E079F8E7A07900F0010008B9072097
:10563000F2E7D4E90210401A00900098854200D9A0
:10564000009DAAE02089C0F30800002876D12068D8
:105650008078401EA16800EA512000F0FF09B9F1EE
:10566000000F1FD1A06810B9206901900CE0606A9A
:1056700028B12046A168FEF76FFF019004E0616940
:10568000206800F0C9FB01900198022802D2022094
:10569000E071C1E70198401C10B90120E071BBE73F
:1056A0000198606161692068FEF76FFF064616B9D0
:1056B0000220E071B0E74E444FEA5528B8F1000FE0
:1056C00029D009EB080021688978884203D920682D
:1056D0008078A0EB0908216848784346324659464D
:1056E000FFF718FC10B10120E07195E7A07900F0F8
:1056F000400068B1A069801B404509D2A169891B9F
:105700000BEB41204FF4007204F1280100F09AFCE9
:105710004FEA482737E0A069B04220D0A07900F0D6
:10572000400080B121684878012304F12801A26972
:10573000FFF712FC18B10120E0716DE710E0A079CD
:1057400020F04000A071216848780123324604F11E
:105750002801FFF7DFFB10B10120E0715CE7A661D3
:105760002089C0F30800C0F50077AF4200D92F466A
:105770002089C0F3080204F1280011183A4658465F
:1057800000F060FC00BFBB44A0683844A060DAF8B9
:1057900000003844CAF80000ED1B002D7FF452AF22
:1057A000002039E72DE9F0410446204600F0B4FF1F
:1057B0000746002F4CD1A07900F02000002847D0E8
:1057C000A07900F0400078B121684878012304F105
:1057D0002801A269FFF7C0FB10B10120BDE8F081EC
:1057E000A07920F04000A071E169206800F0EAFC97
:1057F0000746002F2CD1256AE87A40F02000E87295
:10580000207B2877A089010A6977E068010CA977D5
:10581000E068010EE9772846216900F0BAFE00F041
:105820006FFB0646AE75310AE975310C2976310EEB
:1058300069760020A8740021E974A07920F0200086
:10584000A071012021680871206800F0BAFE0746A7
:105850003846C3E710B502460B460021802A00DA1D
:10586000104610BD10B504462146002000F0A2FDF0
:1058700010BD10B504462146002000F089FD10BD82
:105880000246002100E0491C094830F8110020B10F
:10589000074830F811009042F5D1054830F8110062
:1058A00018B1044830F8110070471046FCE70000BA
:1058B000B6670008966900082DE9F74F88B0002107
:1058C00008980160099800F01DFB079007980028D0
:1058D00003DA0B200BB0BDE8F08FD549079851F8DB
:1058E00020400CB90C20F5E708980460207878B1C6
:1058F0006078FFF72EFB804608F0010040B90A9857
:1059000020B108F0040008B10A20E3E70020E1E735
:1059100000202070079860706078FFF7C4FA804616
:1059200008F0010008B10320D4E70A9820B108F07C
:10593000040008B10A20CDE7002739462046FEF7CB
:10594000B9FD0546012D01D06DBB2CE0002614E009
:1059500004F5F77101EB0610017951B1C17A0A061D
:10596000817A42EA0142417A42EA0121027A1143F4
:1059700000E000214DF82610761C042EE8D3002606
:1059800006B1761E00BF5DF8267027B13946204665
:10599000FEF790FD00E0022005461DB1701C064692
:1059A0000428F0D300BF032D01D1012092E70DB1EF
:1059B0000D208FE73B20015D94F83C0041EA002078
:1059C000B0F5007F01D00D2084E74620015D94F8FA
:1059D000470041EA0029B9F1000F0ED194F85700B1
:1059E000010694F8560041EA004194F8550041EA56
:1059F000002094F8541040EA0109C4F8189040209F
:105A0000005DE070E078012804D0E078022801D041
:105A10000D205FE7E07809FB00F93D20005DA070F4
:105A2000A07818B1A078411E084008B10D2051E7B8
:105A30004120015D94F8420041EA00202081207A53
:105A400000F00F0008B10D2044E74320015D94F8F9
:105A5000440041EA002BBBF1000F0ED194F8530033
:105A6000010694F8520041EA004194F8510041EADD
:105A7000002094F8501040EA010B3E20015D94F89C
:105A80003F0041EA00200490049808B90D2021E766
:105A900004984844218900EB11100690069883452C
:105AA00001D20D2016E70698ABEB0000A178B0FB01
:105AB000F1FABAF1000F01D10D200BE7012540F6F4
:105AC000F670824500D302254FF6F670824500D36A
:105AD00003250AF102006061E761049838442062FE
