:020000040800F2
:10000000E06800208D020008B30A0008AB0A00086F
:10001000AF0A000839070008514E00080000000030
:10002000000000000000000000000000DD0D0008DE
:100030005B07000800000000510B0008F50E0008E7
:10004000A7020008A7020008A7020008A7020008EC
:10005000A7020008A7020008A7020008A7020008DC
:10006000A7020008A7020008A7020008A7020008CC
:10007000A7020008A7020008A7020008A7020008BC
:10008000A7020008A7020008A7020008A7020008AC
:10009000A7020008A7020008A7020008A70200089C
:1000A000A7020008A7020008A7020008A70200088C
:1000B000A7020008A7020008A7020008A70200087C
:1000C000A7020008A7020008A7020008A70200086C
:1000D000A7020008A7020008A702000805100008F0
:1000E000A7020008A7020008A7020008A70200084C
:1000F000A7020008A7020008A7020008A70200083C
:10010000A7020008A7020008A7020008A70200082B
:10011000A7020008A7020008A7020008A70200081B
:10012000A7020008A7020008A7020008A70200080B
:10013000A7020008A7020008A7020008A7020008FB
:10014000A7020008A7020008A7020008410B000848
:10015000A7020008A7020008A7020008A7020008DB
:10016000A7020008A7020008A7020008A7020008CB
:10017000A7020008A7020008A7020008A7020008BB
:10018000A7020008A702000800F002F800F067F8D4
:100190000AA090E8000C82448344AAF10107DA45E2
:1001A00001D100F05CF8AFF2090EBAE80F0013F0CD
:1001B000010F18BFFB1A43F001031847BC7400007D
:1001C000DC7400000A444FF0000C10F8013B13F0FF
:1001D000070408BF10F8014B1D1108BF10F8015BA0
:1001E000641E05D010F8016B641E01F8016BF9D193
:1001F00013F0080F1EBF10F8014BAD1C0C1B09D1EA
:100200006D1E58BF01F801CBFAD505E014F8016B5B
:1002100001F8016B6D1EF9D59142D6D370470000ED
:100220000023002400250026103A28BF78C1FBD8FF
:10023000520728BF30C148BF0B607047642900F0E7
:10024000A380782900F0DC80732900F01082002060
:1002500070471FB506F0DFFF1FBD10B510BD00F0E1
:1002600039FA1146FFF7F5FF06F0D0FB00F057FA18
:1002700003B4FFF7F2FF03BC04F0F3FD30BF72B626
:10028000704762B6704780F3088870470948804716
:1002900009480047FEE7FEE7FEE7FEE7FEE7FEE768
:1002A000FEE7FEE7FEE7FEE704480549054A064B80
:1002B00070470000F90E000889010008E062002084
:1002C000E0680020E0640020E06400207047000047
:1002D0000FB4044910B503AA029800F0CDF910BC80
:1002E0005DF814FB8800002070B50446856900683D
:1002F000C10601D5302600E02026C00707D070BD1A
:10030000D4E9012130469047206A401C20626D1ECE
:10031000F6D570BD70B5044685690078C00707D171
:1003200070BDD4E9012120209047206A401C206242
:100330006D1EF6D570BD70B50C460546012A05D078
:100340002878800600D5EA69002302E0012305E051
:100350005B1C934202D2E05C0028F9D1A869E61840
:10036000C01AA861286A184428622846FFF7BCFF13
:1003700004E0D5E9012114F8010B9047B442F8D309
:100380002846FFF7C7FF70BD2DE9F041064600245F
:1003900010687529314616A510D0AFF300800028EB
:1003A00002DA404213A507E031688A0701D512A599
:1003B00002E0490704D511A5012401E0AFF3008054
:1003C00000210A2206F1240709E0B0FBF2FCB0FB91
:1003D000F2F302FB1C00303078541846491C002808
:1003E000F3D123462A463046BDE8F04100F0D4B8A8
:1003F000000000002D0000002B0000002000000085
:1004000070B504460D4621461068AFF30080218880
:10041000090502D50F4A7A4402E00E4A7A440E32A8
:10042000002104F1240305E000F00F060009965DA9
:100430005E54491C0028F7D120780023000704D51A
:10044000702D02D009B1022311322046BDE8704060
:1004500000F0A2B8247200002DE9F05F894604463E
:100460004FF0000ADFF824B1FB44C0F820A020467A
:10047000E168884700287DD0252806D0D4E90121ED
:100480009047206A401C2062F1E700255F46204625
:10049000E16888472028064607DB312E05D2B819C7
:1004A00010F8200C08B10543F1E7A80701D525F0A5
:1004B0000405C4F81CA00027C4F818A02A2E09D0EF
:1004C000304604F0C7FC38B304EB8708303EC8F868
:1004D000186019E059F8041B204604EB870291616B
:1004E000E1688847012F064618D1E069002820DA24
:1004F00025F020051DE0D8F8180000EB800006EB81
:1005000040003038C8F818002046E16888470646A1
:1005100004F0A0FC0028EED1012F0AD02E2E08D125
:100520002046E16888477F1C0646022F45F02005DB
:10053000C4DBA069002803DA404245F00105A06150
:10054000E80701D025F01005A6B1A6F14100192851
:1005500002D8203645F400654A46314620462560DB
:100560004D46FFF76BFE60B1012807D0ED1D25F069
:10057000070000E007E000F1080978E705F1040949
:1005800075E730467AE7206ABDE8F09FFA7100000F
:1005900070477047704770472DE9F0470D46994600
:1005A0009246044600F124080168880604D5E069F3
:1005B00021F01001216000E00120A84201DD471B6D
:1005C00000E00027A1697A1902EB0900081AA0616E
:1005D0002078C00602D42046FFF786FE002608E0F9
:1005E000D4E901211AF806009047206A401C761CC5
:1005F00020624E45F4DB2078C0060AD52046FFF77E
:1006000073FE06E0D4E9012130209047206A401CA7
:100610002062381EA7F10107F4DC07E0D4E90121CC
:1006200018F805009047206A401C2062281EA5F19A
:100630000105F3DC2046FFF76DFE2078000602D5A9
:100640000220BDE8F0870120FBE710B5436913B134
:10065000AFF3008001E0FFF76EFE012010BD1278BD
:1006600000F124010A7000224A700122EDE71168AE
:100670004FF0FF32E9E70000074B70B50D467B44B1
:1006800000F011F80446284600F020F810B14FF0B1
:10069000FF3070BD204670BDBF60000001694A1C7C
:1006A00002610878704700B58FB0CDE901310021B3
:1006B000059105497944CDE9031011466846FFF7D5
:1006C000CBFE0FB000BD0000E5FFFFFF007B00F098
:1006D00080007047754600F02BF8AE46050069466D
:1006E000534620F00700854618B020B5FFF7DCFD23
:1006F000BDE820404FF000064FF000074FF0000823
:100700004FF0000B21F00701AC46ACE8C009ACE8A3
:10071000C009ACE8C009ACE8C0098D46704710B507
:100720000446AFF300802046BDE81040FFF7A0BDAF
:10073000004870477C62002000BFFEE721B10268DC
:1007400042F00102026003E0026822F0010202604E
:1007500070470146486880B27047704730B107491A
:10076000096841F48061054A116005E003490968A0
:1007700021F48061014A116070470000003C024092
:1007800070B504460A460026092502B909E0012A87
:1007900001D1160205E0022A01D1160201E04FF450
:1007A000407600F09FF80546092D28D115480068CD
:1007B00020F4407013490860084600683043086020
:1007C0000846006820F0F80008600846006844F019
:1007D000020108430B4908600846006840F4803075
:1007E000086000F07FF805460648006820F0020027
:1007F000044908600846006820F0F80008602846B0
:1008000070BD0000103C024009201349096801F442
:100810008031B1F5803F01D101201CE00E4909680B
:1008200001F0100109B1062015E00B49096801F437
:10083000807109B102200EE00749096801F0EF015B
:1008400009B1072007E00449096801F0020109B174
:10085000082000E0092070470C3C02400348006873
:1008600040F000400149086070470000103C024021
:1008700030B502460C46092500F034F80546092D2E
:1008800019D10E48006820F440700C4908600846F1
:10089000006840F4007008600846006840F00100FD
:1008A0000860146000F01EF805460448006820F057
:1008B000010002490860284630BD0000103C02409B
:1008C0000548006800F0004028B1044802490C398E
:1008D0000860034808607047103C024023016745E8
:1008E000AB89EFCD08B509200090FFF78DFF009090
:1008F00002E0FFF789FF00909DF800000128F8D082
:100900009DF8000008BDF0B50A4600210023002430
:1009100000BF3DE0012505FA01F3156805EA03046F
:100920009C4234D105684F000326BE40B5430560A4
:1009300015794E00B5400668354305601579012DDF
:1009400002D01579022D16D185684F000326BE40CE
:10095000B543856055794E00B5408668354385605E
:10096000456801268E40B5434560456896798E40BE
:10097000B6B235434560C5684F000326BE40B54357
:10098000C560D5794E00B540C6683543C560491C81
:100990001029BFD3F0BDF0B5002300244D07ED0EA4
:1009A00002FA05F3CE1000F1200555F826504E0747
:1009B000F70E0F26BE40B543CF1000F1200646F8D3
:1009C0002750CE1000F1200555F8265045EA0304C3
:1009D000CE1000F1200545F82640F0BD4183704758
:1009E00001464869806880B2704708B50146D1F871
:1009F000CC00006800900098C0F3414008BD02465A
:100A000002F29B30405C7047024602F5547050F889
:100A10002100704770B504460E4600250021C4F839
:100A2000101300BF0BE0002104F5457040F82510BD
:100A30003C3040F825103C304155681CC5B20F2DA4
:100A4000F1DB0821A4F8B2133146204603F082F905
:100A5000204602F089FD204602F050FC012120468C
:100A600003F0E0F9204602F0DCFC204602F0D5FD60
:100A7000002070BD0146D1F81003704710B5044640
:100A8000204603F046F9002010BD70B504460D461F
:100A9000002104F29B304155113000EB45104161BB
:100AA0002946204602F0E4FF70BD00BFFEE700BF0C
:100AB000FEE7704770B5002100230F22C4781CB3F5
:100AC000174C246804F4E064C4F5E064C4F307211F
:100AD000C1F10404E3B20A4144789C40E1B2847855
:100AE000144021430C07210E0E4C05786155047803
:100AF00004F01F050124AC4005786D11AD0005F12F
:100B0000E025C5F8004109E0047804F01F05012440
:100B1000AC40054D0678761145F8264070BD0000C2
:100B20000CED00E000E400E080E100E00249014358
:100B3000024A1160704700000000FA050CED00E069
:100B400010B5024801F080FE10BD00001002002028
:100B50007047000029B1064A12680243044B1A602C
:100B600004E0034A12688243014B1A607047000098
:100B70003038024029B1064A12680243044B1A6019
:100B800004E0034A12688243014B1A607047000078
:100B90003438024029B1064A12680243044B1A60F5
:100BA00004E0034A12688243014B1A607047000058
:100BB00040380240F0B50021002200240225002622
:100BC0000223324F3F6807F00C0121B1042905D000
:100BD000082937D105E02E4F076036E02D4F07601A
:100BE00033E02A4F3F1F3F68C7F38056274F3F1F10
:100BF0003F6807F03F036EB1264FB7FBF3F7DFF80E
:100C00008CC0ACF1040CDCF800C0CCF3881C07FBF2
:100C10000CF40CE01E4FB7FBF3F7DFF870C0ACF13B
:100C2000040CDCF800C0CCF3881C07FB0CF4174F55
:100C30003F1F3F68C7F301477F1C7D00B4FBF5F7FA
:100C4000076002E0124F076000BF00BF0F4F3F6810
:100C500007F0F0010909104F7A5C0768D740476038
:100C60000A4F3F6807F4E051890A0B4F7A5C4768E6
:100C7000D7408760054F3F6807F46041490B064F36
:100C80007A5C4768D740C760F0BD00000838024072
:100C90000024F40000127A008E00002001461C4857
:100CA000814201D2002070471A48814201D20820B7
:100CB000F9E71948814201D21020F4E71748814230
:100CC00001D21820EFE71648814201D22020EAE73E
:100CD0001448814201D22820E5E71348814201D21D
:100CE0003020E0E71148814201D23820DBE710488C
:100CF000814201D24020D6E70E48814201D24820ED
:100D0000D1E70D48814201D25020CCE75820CAE7F4
:100D1000004000080080000800C000080000010832
:100D2000000002080000040800000608000008088F
:100D300000000A0800000C0800000E0801460868C0
:100D4000704700002DE9F04704460E4617464FF065
:100D500009080025A946B4F1006F02D304F003008E
:100D600008B1BDE8F087FFF7ABFD0020FFF7F6FC08
:100D7000254604EB87091848854215D211E028461C
:100D8000FFF7DCFF401C58B12846FFF787FF82467B
:100D90000221FFF7F5FC8046B8F1090F01D002E00F
:100DA0002D1D4D45EBD300BFB8F1090F0CD108E064
:100DB00020463168FFF75CFD092800D003E0241DC0
:100DC000361D4C45F4D300BF0120FFF7C7FCFFF7E9
:100DD00045FD00BFC5E700000000FF1F7047000091
:100DE0000CB50020019000903448006840F4803039
:100DF0003249086000BF3148006800F400300090BC
:100E00000198401C0190009818B90198B0F5A04FC6
:100E1000F1D12A48006800F4003010B101200090A0
:100E200001E0002000900098012846D1234840307E
:100E3000006840F080502149403108602048006837
:100E400040F440401E4908601C48083000681B49B7
:100E5000083108600846006840F400400860084611
:100E6000006840F4A05008601648091F0860081F79
:100E7000006840F08070091F086000BF0F480068DC
:100E800000F000700028F9D040F205700E490860AB
:100E90000A480830006820F003000849083108605B
:100EA0000846006840F00200086000BF03480830B0
:100EB000006800F00C000828F8D10CBD0038024092
:100EC0000070004008544007003C0240042808D14C
:100ED0004FF0E021096941F004014FF0E022116177
:100EE00007E04FF0E021096921F004014FF0E02212
:100EF000116170477047000010B51548006840F454
:100F00007000134908601348006840F0010011495F
:100F1000086000200F49083108600E4800680E493B
:100F200008400C4908600D48091D0860081F00684A
:100F300020F48020091F0860002006490C31086059
:100F4000FFF74EFF4FF0006001498039086010BD87
:100F500088ED00E000380240FFFFF6FE103000246C
:100F600010B586B0044601210820FFF7F3FD0121EA
:100F70008804FFF70FFE072208212048FFF70BFD2A
:100F8000072209211D48FFF706FD4FF44070049029
:100F900002208DF814008DF8150000208DF8160041
:100FA00001208DF8170004A91448FFF7ACFC009449
:100FB0000020ADF80400ADF80600ADF80800ADF86B
:100FC0000C000C20ADF80A0069460D4800F0B2F89C
:100FD000012240F224410A4800F086F80121084825
:100FE00000F043F84021064800F036F80122402185
:100FF000034800F046F806B010BD0000000C0240A7
:101000000048004070B500250026002440F224412D
:101010000F4800F03FF8C0B100210E48FFF78EFBEB
:101020000B480088C4B20A48001D0088C4B20948B1
:10103000FFF78FFBC0F18000C4B28020054928393A
:10104000C86201210348FFF779FB00BF70BD0000B3
:10105000004800402860024001F40072B2F5007FB1
:1010600000D100BFCA430280704721B1828942F497
:101070000052828104E082894DF6FF731A4082811A
:1010800070471AB1838A0B43838202E0838A8B43C1
:101090008382704770B5024600240023002500209B
:1010A00040F66A16B14200D100BFC1F3421501F00B
:1010B0001F03012606FA03F3012D02D1968933405E
:1010C00006E0022D02D1168A334001E0968A3340B1
:1010D0000C12012606FA04F41688344013B10CB140
:1010E000012000E0002070BDF0B50346002400267A
:1010F0000025002040F66A17B94200D100BF18460B
:10110000C1F3421401F01F06012707FA06F5012C6E
:1011100001D10C3004E0022C01D1103000E0143079
:101120001AB107682F43076002E00768AF43076002
:10113000F0BD00002DE9FF4705460E460024A146FC
:1011400000BFA046B08900B100BF2C8A24F44054EF
:10115000F08804432C82AC8941F20C608443B0884F
:1011600031890843718908430443AC81AC8A24F473
:101170004074B0890443AC826846FFF71BFD2048E9
:10118000854202D01F48854202D1DDF80C9001E073
:10119000DDF80890A88900F4004040B109EBC900CF
:1011A00000EB091031684900B0FBF1F707E009EBEB
:1011B000C90000EB091031688900B0FBF1F7642029
:1011C000B7FBF0F004012009642101FB1078A88925
:1011D00000F4004040B1322000EBC800B0FBF1F059
:1011E00000F00700044308E0322000EB08106421FF
:1011F000B0FBF1F000F00F0004432C81BDE8FF8745
:10120000001001400014014070B505460E46284606
:1012100000F0BEF904464FF6FF70844205D046F454
:10122000004105F28C5020F81410E0B270BD2DE999
:10123000F04105460E4617461C46012105F56B7028
:1012400000EB4410817005F56B7000EB4410C66034
:1012500005F56B7000EB4410076105F56B7000EB52
:101260004410007E30B9002105F56B7000EB44108E
:10127000017205E0022105F56B7000EB441001726C
:1012800021462846FFF701FC0020BDE8F0812DE94A
:10129000F04105460E4617461C46002105F56B70C9
:1012A00000EB4410817005F56B7000EB4410C660D4
:1012B00005F56B7000EB4410076105F56B7000EBF2
:1012C0004410407E28B905F56B7000EB44100172A4
:1012D00005E0022105F56B7000EB44100172214618
:1012E0002846FFF7D2FB0020BDE8F0812DE9F04150
:1012F00005460C4616461F460221217501216175DF
:101300000021E1822683618306F08000802805D1D8
:1013100005F56B7000EB4710017605E0002105F53F
:101320006B7000EB4710417600231A462146284691
:1013300000F02BF8BDE8F08101460122C1F810232E
:10134000002070472DE9F04105460E4617461C4621
:10135000012105F56B7000EB44108170022105F549
:101360006B7000EB4410017205F56B7000EB4410DC
:10137000C66005F56B7000EB4410076121462846F6
:10138000FFF783FB0020BDE8F0812DE9F0418046A6
:101390000C4615461E460127E078012802D0022897
:1013A00020D108E032462946204601F0E3FC022025
:1013B000E070012717E0207F0D2805D10120E070A3
:1013C0000021217700270CE0207F0B2803D101208A
:1013D000E070022705E0207F0C2802D10120E07098
:1013E000032700E000BF00BF3846BDE8F0812DE9CB
:1013F000F04105460F4616461C46002105F56B7068
:1014000000EB4410817005F56B7000EB4410C76071
:1014100005F56B7000EB441006612EB9012105F54E
:101420006B7000EB4410417605F56B7000EB4410D7
:10143000407E30B9002105F56B7000EB441001725D
:1014400005E0022105F56B7000EB441001722146A6
:101450002846FFF71AFB0020BDE8F08170B505466D
:101460000E461446002105F56B7000EB44108170A8
:10147000032105F56B7000EB4410017205F56B70EC
:1014800000EB4410C660082105F56B7000EB4410BA
:10149000016121462846FFF7F8FAC0B270BD024646
:1014A000022106E0002302F28C5020F81130481C83
:1014B000C1B20829F6DB0020704770B505460C461E
:1014C000002020706070A0700120E0700121217761
:1014D0004021A171002084F8200001212120015524
:1014E0002179284600F023F86179284600F01FF89A
:1014F000002070BD01460022C1F810230020704773
:1015000070B504460D46052D01D0042D06D1D4F842
:101510009010486C80470A20207007E0062D05D106
:101520000A202070D4F890100868804770BD0246E9
:10153000082909DA02F28C5030F81100C0F30E03CA
:1015400002F28C5020F81130002070472DE9F0474E
:1015500080460C4616461D46DDE9089746F0800198
:10156000217506216175E58205F47F40B0F5407F65
:1015700003D140F20941218301E0002121836783E7
:101580003B464A4621464046FFF7FFFEBDE8F0874E
:101590000246002100BF0AE002F28C5030F8110030
:1015A00000F4004008B908467047481CC1B2082939
:1015B000F2DB4FF6FF70F7E710B502460B881478A0
:1015C00023440B801378981810BD00002DE9FC41CE
:1015D00004460D461646002704F588704FF4007344
:1015E00000222946CDE900062046FFF7AFFFB0F103
:1015F000000814D106E004F58870C05D0949C8559B
:10160000781C87B2B742F6DB04F5887305F1500207
:1016100005F13E0105F13400009601F0B7F94046AE
:10162000BDE8FC81E05B00202DE9FC4104460D464D
:10163000164604F588704FF4807300222946CDE9E0
:1016400000062046FFF782FF071E06D1324604F54A
:10165000887105F1220001F029FA3846BDE8FC81C5
:101660002DE9FC470446884615461E460A9F04F5A8
:10167000887045F4407300224146CDE900072046BA
:10168000FFF764FFB0F1000905D13A46314604F591
:10169000887001F05AFA4846BDE8FC872DE9F04110
:1016A00006460C464FF0000800250021A174207F5B
:1016B0000C2876D2DFE800F0FD060F3D46657691F6
:1016C0009AC0D7ED627904F114013046FFF7C6FEE7
:1016D00002212177EEE061793046FFF790F9054667
:1016E000012D1FD1207D00F08007608B58B141F2A1
:1016F000883072490880802F02D1032121770CE0C5
:101700000521217709E032206C490880802F02D121
:101710000921217701E0072121773046FFF760F9A1
:10172000208205E0032D03D10B2121770521A1742F
:10173000C0E02379A2893046A168FFF703FE0421A7
:101740002177B7E021793046FFF759F90546012D99
:1017500001D109212177042D02D1607820700FE09A
:10176000032D02D10B2121770AE03046FFF738F92B
:10177000218A401A51490988884201D90B212177D1
:1017800098E00121627906F56B7000EB421041761A
:101790006379A2893046A168FFF729FE06212177E7
:1017A00088E086E061793046FFF729F90546012D8A
:1017B00002D1072121770FE0042D04D16078207039
:1017C0000C21217708E0022D02D10521217703E0C9
:1017D000032D01D10B2121776CE0237900221146E2
:1017E0003046FFF7AFFD0821217763E021793046CD
:1017F000FFF705F90546012D04D1607820700D2111
:10180000217718E0032D02D10B21217713E0304618
:10181000FFF7E6F8218A401A28490988884202D948
:101820000B21217707E0042D05D160782070042179
:10183000A1744FF003083DE0617906F56B7000EB91
:101840004110407E80F00101627906F56B7000EB7B
:10185000421041766379002211463046FFF7C7FDFA
:101860000A21217726E061793046FFF7C8F805465E
:10187000012D04D1607820700D21217708E0022D20
:1018800002D10921217703E0032D01D10B2121771A
:1018900010E0A07B401CC1B2A173022902DC01212F
:1018A000217705E00821A174607820704FF00208CC
:1018B00000E000BF00BF4046BDE8F081F40000201A
:1018C00070B592B005460C460126A0780A287AD257
:1018D000DFE800F00528375D667A97B4D1DB08228F
:1018E00021462846FFF7A0FED8B994F82910A17127
:1018F0002846FFF7C3F80120A070A0790021CDE9A8
:101900000010617900231A46284600F06BFFA07989
:101910000021CDE90010217900231A46284600F065
:1019200061FFB5E0122221462846FFF77DFE38B957
:10193000D4F89000C16904F1220088470220A07009
:10194000A6E001222146284601F0EEF9F0B9022076
:1019500001F0C8FC0120A41CA077D4F88E10086AFE
:10196000804703202070002000900190A27FA17882
:101970000346284600F036FF002000900190A27F29
:10198000A41E61790346284600F02CFF80E009225E
:1019900021462846FFF71AFE08B90420A07077E018
:1019A000E28E21462846FFF711FE58B9D4F8900080
:1019B00004F1500204F13E01436A04F134009847F7
:1019C0000520A07064E062E094F8300088B1FF2048
:1019D000009094F8302002AB21462846FFF740FEE5
:1019E00070B9D4F89000816A02A888470620A070D8
:1019F00006E0D4F89000816A27A088470620A070EE
:101A000046E094F8310088B1FF20009094F831202E
:101A100002AB21462846FFF723FE70B9D4F89000A8
:101A2000C16A02A888470720A07006E0D4F8900099
:101A3000C16A19A088470720A07029E094F83200F5
:101A400088B1FF20009094F8322002AB214628464E
:101A5000FFF706FE70B9D4F89000016B02A8884722
:101A60000820A07006E0D4F89000016B0AA0884717
:101A70000820A0700CE094F839202146284601F097
:101A800066F908B90920A07002E0002600E000BF56
:101A900000BF304612B070BD4E2F41002DE9F0411D
:101AA00006460F4614461D46DDF81880304601F004
:101AB000DDFB002001F0C6FB21463046FFF7FDFCB0
:101AC000C4F88C50C4F8908039463046FEF7A2FF27
:101AD000D4F8901008688047304601F0B5FBBDE8A7
:101AE000F08170B505460C4621212175FF216175F5
:101AF0000021E1822183618300231A462146284682
:101B0000FFF743FC70BD00002DE9F04105460E468D
:101B10001446012714B1012C12D108E010480378B3
:101B2000C27831462846FFF7E1FB074609E00C483A
:101B30004378827831462846FFF7D8FB074600E015
:101B400000BF00BF07480068401C064908600846FF
:101B50000068042800D904273846BDE8F081000059
:101B6000205E0020FC00002010B50246002000236B
:101B7000014C237010BD0000105E00202DE9F041E3
:101B800005460F46002601242846FEF773FF20B3C2
:101B9000154801782846FEF737FF06460D2E01D07E
:101BA00002241CE0114800681149884216D10F48F0
:101BB000406810494968884211D10C48007B08B937
:101BC00000240CE00948007B012801D1012406E033
:101BD0000648007B022802D1022400E002240648C5
:101BE000C4732046BDE8F081205E0020005E002026
:101BF00055534253E05D0020105E0020012812D1B1
:101C00000D490978491C0C4A1170114609780A29B6
:101C100005DA0621094A11700121D1700AE00A2172
:101C2000064A117006E0022803D10A21034A117006
:101C300000E000BF7047000018010020105E002087
:101C400070B505460C46A1212175FE216175002164
:101C5000E1822183012161830123034A2146284631
:101C6000FFF793FB70BD0000285E00202DE9F047D0
:101C700081460F463E46012403254FF000084846A2
:101C8000FEF7F8FE002878D05E4800780B2875D261
:101C9000DFE800F0060D1E5566798A999E44B00073
:101CA000484600F05FFA012056490870A5E0394621
:101CB0004846FFF716FF044614B902205149087040
:101CC000032C04D102204F4948700920087094E089
:101CD00039464846FFF7B4FF0446BCB94A48007A83
:101CE000494981F84800084690F8480000280ADD74
:101CF0004648007838B9012044490870D6F8901059
:101D0000086C804779E003203E490870032C04D119
:101D100003203C494870092008706EE07379002266
:101D200039464846FFF7E2FA04463CB900203649F6
:101D300081F8480033484078324908705DE04846F1
:101D400000F086FC05463DB904202E4908700020AD
:101D50002F490870002402E02846FFF74FFF4CE0AF
:101D6000484600F097FB05464DB905202549087007
:101D7000002027490870002404E03FE03CE02846AA
:101D8000FFF73CFF39E0484600F09CFA05463DB9B4
:101D900008201C49087000201D490870002402E03A
:101DA0002846FFF72BFF28E0484600F0E1FB0546F8
:101DB0002DB91448407813490870002402E02846E1
:101DC000FFF71CFF19E03946484600F023F814E0FD
:101DD000D6F89010C86B804700F0FF08B8F1000FEC
:101DE00003D108200749087003E0B8F1010F00D1C2
:101DF000062402E0042400E000BF00BF2046BDE846
:101E0000F0870000105E0020205E00202C010020E2
:101E1000180100202DE9F0478046894600244046FD
:101E2000FEF728FE00287DD0C548007909287AD21F
:101E3000DFE800F079051251A3FDFCFBFA00C14870
:101E400043781F22C0494046FFF721FA0120BC49D0
:101E500048710220087170E1BA4841784046FEF7A7
:101E6000CEFD0446012C26D10020B849086002208E
:101E7000B3494871B448007B00F08007B2488068DD
:101E8000A8B1B1488068B2490860AD488068B149DE
:101E9000086008460068B0490860802F03D103201D
:101EA000A749087116E00420A549087112E0052031
:101EB000A34908710EE0022C04D1A1484079A04941
:101EC000087107E0042C05D10120A44908700820FE
:101ED0009B49087131E19B4801784046FEF78FFD30
:101EE0000446012C03D09648407903283AD00020BC
:101EF0009649086003209249487192488088944925
:101F00000968884219D28F4803788288914801680D
:101F10004046FFF78CF98B4880888D490968081A7C
:101F20008B4901E00AE107E1086086488088894919
:101F300009680844874908601EE08548006818B9A8
:101F400005207F49087117E07E48037880480088A3
:101F500082B2804801684046FFF769F900207C4959
:101F6000086009E0042C07D100207C490870072094
:101F70007349087105204871DFE072484178404696
:101F8000FEF73DFD0446012C3BD100206F4908605F
:101F900004206B4948716B48C0886D4909688842C4
:101FA0001AD268484378C2886A4801684046FFF7F9
:101FB0006EF968480068684908606248C0886549E9
:101FC00009680844634908605E48C0886049096838
:101FD000081A5F49086042E05D48006818B90520AA
:101FE000574908713BE0574843785948008882B206
:101FF000584801684046FFF74AF9002054490860F4
:102000002DE0022C21D153480068534909688842C9
:1020100012D04C484378C288C088DFF838C1DCF859
:1020200000C0ACEB000103E074E059E037E017E0DA
:102030004046FFF72CF912E042484378C2884548F1
:1020400001684046FFF723F909E0042C07D101207D
:102050004249087008203A490871052048716CE02F
:102060000520374948713E4888603F2088810D2609
:1020700004E000203A498855701EC6B2002EF8D1FF
:102080000020374908702F4803782D483F22816887
:102090004046FFF7CCF80620294908714DE0294851
:1020A00001784046FEF7ABFC0446012C0FD100201E
:1020B0002649086005202249487108468078087042
:1020C00049464046FFF75AFD1D49C87307E0042CF6
:1020D00005D10020214908700720194908712CE01A
:1020E000002249464046FFF70FFD054665B91B48EB
:1020F0000078022803D108201149087109E010482E
:1021000040790F49087104E0042D02D102200C49E6
:10211000C87312E0012249464046FFF7F5FC054628
:1021200025B9074840790649087104E0042D02D119
:1021300002200349C87300E000BF00BFBDE8F0877C
:10214000105E0020205E0020E05D0020FC000020EA
:102150000001002004010020080100200C010020E3
:10216000005E002010B504462046FEF783FC48B10F
:102170000748084908600848486000204873012063
:102180000649C8700020064908600649087010BD5D
:1021900055534243E05D002050403020105E002047
:1021A000FC0000201801002070B504460D461048C0
:1021B000407860B10E484178204601F0FCFA0C48A6
:1021C00041782046FFF7B3F90020094948700848D4
:1021D000007860B106480178204601F0ECFA044826
:1021E00001782046FFF7A3F900200149087070BD6F
:1021F000205E00207CB506460D462C4694F8430030
:10220000082856D194F84500502852D194F852002D
:1022100000F0800038B194F852002949C870B4F831
:102220005400888006E094F8520025498870B4F87C
:102230005400C88094F85A0000F0800038B194F837
:102240005A001F49C870B4F85C00888006E094F812
:102250005A001B498870B4F85C00C880184881781F
:102260003046FEF7D1FF164948700846C17830461F
:10227000FEF7CAFF124908700846C0880221CDE95E
:1022800000102120035D94F820200D48417830464D
:1022900000F02EFB0A4880880221CDE900102120A1
:1022A000035D94F8202006480178304600F020FBBA
:1022B00003E0D4F89010086C804700207CBD00003B
:1022C000205E002070B5054603262846FEF7D2FBA7
:1022D000002855D02B48C078012802D002284DD1C3
:1022E00027E03F2028498860802008730A208873EF
:1022F00026482449886005208870102405E00021C4
:1023000021480F300155601EC4B2002CF7D11A20AD
:102310001D49C8733F211C484174C17401201949EB
:102320000871072008700320C8730220C8700326B4
:1023300025E01448C07B80B91448807800F0800004
:1023400018B101201249087302E0002010490873F7
:1023500001200C49C87000260FE00A48C07B012804
:1023600003D10849C870012607E00648C07B02284F
:1023700003D101200349C870022600E000BF00BF5E
:10238000304670BD105E0020E05D00207C5E0020C5
:102390006C5E0020FFB581B007460E461D46032047
:1023A000394908703846FEF765FB002867D0374882
:1023B000C078012802D002285FD139E03448856016
:1023C0008020334908730A208873304886601024BF
:1023D00005E000212E480F300155601EC4B2002CCC
:1023E000F7D128202A49C8739DF80F102848417456
:1023F0009DF80E1081749DF80D10C1749DF80C109D
:102400000175C5F34F2000909DF80110204881759B
:102410009DF80010C17501201C4908710720087043
:102420000320C8730220C87003201749087025E0F4
:102430001648C07B50B93846FEF71CFB30B101206E
:102440001249C87000201049087015E00F48C07B81
:10245000012807D13846FEF70DFB18B101200B49C2
:10246000C87009E00948C07B022805D1012007494E
:10247000C87002200449087000E000BF00BF024895
:10248000007805B0F0BD00002D010020105E002096
:10249000E05D002070B5054603262846FEF7EAFAFF
:1024A00000285AD02E48C078012802D0022852D1E4
:1024B00023E008202B498860802008730A20887355
:1024C00029482749886004208870102405E00021ED
:1024D00024480F300155601EC4B2002CF7D12520CE
:1024E0002049C87301201E49087107200870032085
:1024F000C8730220C87003262EE01948C07BC8B9F3
:10250000194800781949C8701748407888701648EB
:10251000807848701448C07808701348817913484F
:1025200041721148C0791149087201200C49C870E4
:1025300000260FE00A48C07B012803D10849C87073
:10254000012607E00648C07B022803D10120044988
:10255000C870022600E000BF00BF304670BD00001A
:10256000105E0020E05D00207C5E00206C5E00209C
:1025700070B5054603262846FEF77CFA00285DD094
:102580002F48C078012802D0022855D12BE03F20E7
:102590002C498860802008730A2088732A482849BB
:1025A000886008468078487006208870102405E00E
:1025B000002124480F300155601EC4B2002CF7D111
:1025C00003202049C87300211E4801743F21C174B3
:1025D00001201B490871072008700320C8730220DE
:1025E000C870032629E01648C07BA0B916480178B8
:1025F0001648C17114484178144881711248817895
:10260000124841711048C0781049087101200C49E6
:10261000C87000260FE00A48C07B012803D1084992
:10262000C870012607E00648C07B022803D10120BC
:102630000349C870022600E000BF00BF304670BDED
:10264000105E0020E05D00207C5E00206C5E0020BB
:1026500070B5054603262846FEF70CFA002846D03A
:102660002448C078012802D002283ED124E000206E
:102670002149886008730620887320481D498860B6
:102680003F20888103208870102405E000211A482B
:102690000F300155601EC4B2002CF7D1002016493E
:1026A000C873012013490871072008700320C873FC
:1026B0000220C870032619E00E48C07B20B9012013
:1026C0000C49C87000260FE00A48C07B012803D1DE
:1026D0000849C870012607E00648C07B022803D1DC
:1026E00001200449C870022600E000BF00BF304648
:1026F00070BD0000105E0020E05D0020005E002044
:102700002DE9FF4182B007460E461D464FF00308F3
:102710003846FEF7AFF900285BD03048C078012872
:1027200002D0022853D138E02D48856000202C4982
:1027300008730A20887329488660102405E0002168
:1027400027480F300155601EC4B2002CF7D12A2053
:102750002349C8739DF81310214841749DF8121045
:1027600081749DF81110C1749DF810100175C5F3A6
:102770004F2001909DF80510194881759DF80410AF
:10278000C175012015490871072008700320C8731E
:102790000220C8704FF003081AE01048C07B28B927
:1027A00001200E49C8704FF000080FE00B48C07BB5
:1027B000012802D10949C87008E00848C07B0228F6
:1027C00004D101200549C8704FF0020800E000BFA5
:1027D00000BF404606B0BDE8F0810000105E00205A
:1027E000E05D00202DE9F04704460D4617461E46E1
:1027F000DDE9089827B104F56B7000EB4510077010
:1028000004F56B7000EB4510C088404508D0B8F166
:10281000000F05D004F56B7000EB4510A0F80680A2
:1028200004F56B7000EB4510C078B04205D026B1BE
:1028300004F56B7000EB4510C6702946204600F089
:10284000FBFF0020BDE8F08738B5054600240020D6
:102850000090284601F01BFA002847D0284601F0D6
:1028600020FA0090009808B9002038BD0098C0F305
:10287000C00018B1284602F0CFF904430098C0F315
:10288000001018B1284602F014F904430098C0F370
:10289000401018B1284601F04EFF04430098C0F3E1
:1028A000806018B1284602F06DF804430098C0F328
:1028B000406018B1284601F016FB04430098C0F3AD
:1028C000006018B1284601F0CDFF04430098C0F322
:1028D000407018B1284601F0CDFA04430098C0F3C7
:1028E000405018B1284601F0DBFA04432046BCE70B
:1028F0002DE9F04704460D4617461E46DDE90889D6
:1029000004F28C5010F8150000F07F0104F56B7094
:1029100000EB4510417004F28C5010F81500C0F324
:10292000C01104F56B7000EB4510817004F56B70FD
:1029300000EB4510077004F56B7000EB451080F854
:10294000058004F56B7000EB4510A0F8069004F5C7
:102950006B7000EB4510C670002104F56B7000EB46
:102960004510017604F56B7000EB451041762EB9E9
:10297000012104F56B7000EB4510017129462046DA
:1029800000F05AFF0020BDE8F08700002DE9F04F6D
:1029900085B00646894692461D462C460027B84615
:1029A00000BF2878307068787070A978E87801EBFB
:1029B000002070802879307168797071A879B071C1
:1029C000E879F071287A30720E98092866DD0920BE
:1029D0000090307902285CDCBB4655E06946204611
:1029E000FEF7EAFD0446607804284DD1A07847B28E
:1029F00007EBC70000EB090BE078032844DA214617
:102A000002A800F08FF84FF000089DF80C00032892
:102A10003ADC34E069462046FEF7CEFD0446607895
:102A200005282CD107EB47000AEBC00000EBC800DB
:102A300001901C480078B84206D01A490F7002A9CC
:102A4000584600F06FF80CE02179607901EB002026
:102A500015490988884200DA15E002A9584600F0B5
:102A600061F82146019800F04DF82179607901EB79
:102A700000200D49088008F101004FFA80F89DF808
:102A80000C004045C6DC00BF7088BDF800108842CD
:102A9000A4DC0020044908800249087005B0BDE8A4
:102AA000F08F0000F8000020F600002010B50B7831
:102AB00003704B7843708C78CB7804EB032343800E
:102AC0000B7903714B7943718B798371CB79C37126
:102AD000082A16DD0C7A4B7A04EB032303818C7AE7
:102AE000CB7A04EB032343810C7B4B7B04EB032366
:102AF00083818B7B8373CB7BC3730B7C03744B7C95
:102B0000437410BD0A7802704A7842708A788270E5
:102B1000CA78C2700B794A7903EB022282808A79E3
:102B2000827170470A7802704A7842708A7882709F
:102B3000CA78C2700A7902714A7942718A798271BF
:102B4000CA79C2710A7A0272704730B51346457865
:102B5000032D14D10578AD1E9D4202DC0578AD1E13
:102B600000E01D46ACB2801C002204E0855C0D70C4
:102B7000491C951CAAB2A242F8DB00250D7030BD9D
:102B80003EB505460C46022002902846FDF772FF2E
:102B900030B9207820B12078022801D0022020709E
:102BA00020780B2877D2DFE800F00610A0B94D6935
:102BB0007D8A598F90002846FDF75CFF20B10120E7
:102BC0002070642000F08EFBA9E0D4F89010886893
:102BD000804700212846FEF717FB607180212846B8
:102BE000FEF712FB20712846FDF748FF48BBD4F8DA
:102BF0009010C86880472846FDF7F7FEC1B2212033
:102C00000155042020702122105DD4F89020916994
:102C10008847A0790021CDE900102120035D94F8B8
:102C2000202021792846FFF763FEA0790021CDE915
:102C300000102120035D94F8202061792846FFF7D9
:102C400057FE6CE021462846FEF73AFE28B9D4F834
:102C50009010486B80470820207060E0D4F89010F6
:102C6000886B8047012808D1D4F88C00214602687F
:102C70002846904708B90520207050E0D4F88C0011
:102C8000214682682846904702909DF8080018B9AE
:102C90000620207005E041E09DF808102046FEF770
:102CA0002FFC3CE0D4F88C002146C26828469047AF
:102CB00002909DF808102046FEF722FC2FE02146E6
:102CC0002846FEF7EBFC2AE029E021462846FEF7DD
:102CD000F4FBD4F8901048688047D4F88C0004F1D5
:102CE000200142682846904719E0D4F890100869FE
:102CF000804721462846FEF7E0FBD4F8901048684C
:102D00008047D4F88C0004F120014268284690479F
:102D10002846FEF7C4FB0020207000E000BF00BF83
:102D20003EBD01460020704770B506460C4615466C
:102D30000021217505216175E582002121836183D0
:102D400000231A4621463046FEF71FFB70BD70B5C2
:102D500006460C4615460021217509216175E5825C
:102D600000212183618300231A4621463046FEF765
:102D70000CFB70BD10B5034618785870072018700A
:102D800099609A8101241C77002010BD2DE9F04143
:102D900005460E46174601241148FDF76BFEC0B1EB
:102DA00010480078012814D100BF7B023246294622
:102DB0000B48FFF7EFFA04460B490948FFF72AF8DA
:102DC0000748FDF757FE08B9012401E0032CECD0B9
:102DD00000E0012404B900242046BDE8F081000091
:102DE00010020020300100207C01002010B50248B4
:102DF000FDF740FEC0B210BD100200202DE9F041E9
:102E000005460E46174601241148FDF733FEC0B1B2
:102E100010480078012814D100BF7B0232462946B1
:102E20000B48FFF76DFC04460B490948FEF7F2FF1B
:102E30000748FDF71FFE08B9012401E0032CECD080
:102E400000E0012404B900242046BDE8F081000020
:102E500010020020300100207C0100202DE9F0410B
:102E600006460C46174625466879082803D106A071
:102E7000FDF72EFA05E06879032802D107A0FDF7D7
:102E800027FABDE8F0810000BFC9D2C6B6AFB4E6EC
:102E9000B4A2C6F7C9E8B1B8210D0A0048494420D8
:102EA000C9E8B1B8210D0A00002001490870704737
:102EB0003001002010B502A0FDF70AFA10BD000095
:102EC000B4D3BBFAB5D8D6B7B7D6C5E4B3C9B9A69B
:102ED000210D0A0010B501200E490860322002F0D1
:102EE00063FA00200C49C1F88C02642002F05CFAFD
:102EF000012008490860322002F056FA00200649F5
:102F0000C1F88C02642002F04FFA04A0FDF7E0F94A
:102F100010BD00008C02404200004042BCECB2E216
:102F2000B5BD555342C9E8B1B8B2E5C8EB210D0AA9
:102F30000000000010B5012014490860322002F0A2
:102F400033FA00201249C1F88C02642002F02CFAF6
:102F500001200E490860322002F026FA00200C49B8
:102F6000C1F88C02642002F01FFA012007490860B2
:102F7000322002F019FA00200549C1F88C026420C1
:102F800002F012FA03A0FDF7A3F910BD8C02404233
:102F900000004042555342C9E8B1B8B0CEB3F62163
:102FA0000D0A000010B502A0FDF792F910BD000057
:102FB000CEDEB7A8CAB6B1F0B5C4555342C9E8B120
:102FC000B8210D0A0D0A000010B504461CB90AA06C
:102FD000FDF77EF90EE0012C03D10CA0FDF778F986
:102FE00008E0022C03D10EA0FDF772F902E011A057
:102FF000FDF76EF910BD0000B8DFCBD92848532982
:10300000555342C9E8B1B8210D0A0000C8ABCBD96D
:1030100028465329555342C9E8B1B8210D0A00008A
:10302000B5CDCBD9284C5329555342C9E8B1B82165
:103030000D0A0000C9E8B1B8B4EDCEF3210D0A00C5
:1030400070B504462546298903A0FDF741F9698931
:1030500005A0FDF73DF970BD5649443A20253034AE
:1030600058680D0A000000005049443A20253034C9
:1030700058680D0A0000000010B502A0FDF728F9FD
:1030800010BD0000C9E8B1B8C3B6BED9CDEAB3C916
:10309000210D0A0D0A00000010B505A0FDF718F972
:1030A00009A0FDF715F910A0FDF712F910BD0000F9
:1030B000555342204F5447204853204D53432048F6
:1030C0006F73740D0A0000003E2055534220486F74
:1030D0007374206C696272617279207374617274A6
:1030E00065642E0D0A000000202055534220486FD1
:1030F0007374204C6962726172792076322E312E9F
:10310000300D0A0D0A00000010B500240C480078AC
:1031100010B1012810D106E00AA0FDF7D9F801206E
:103120000749087009E001F0ADFD0446002414B120
:1031300000200349087000E000BF00BF204610BD1A
:1031400030010020BFAACABCD6B4D0D0D3C3BBA71D
:10315000B3CCD0F22121210D0A00000010B50446A5
:10316000214602A0FDF7B4F810BD00004D616E7558
:1031700066616374757265723A2025730D0A0000EA
:1031800010B502A0FDF7A4F810BD0000B6CBBFDA61
:10319000B5E7C1F7B9FDB4F32121210D0A00000004
:1031A00010B50446214602A0FDF792F810BD0000BC
:1031B00050726F647563743A2025730D0A00000025
:1031C00010B502A0FDF784F810BD0000B8B4CEBB66
:1031D000C9E8B1B82E2E2E0D0A00000010B5044625
:1031E000214602A0FDF774F810BD00005365726916
:1031F000616C204E756D6265723A2025730D0A0070
:1032000010B502A0FDF764F810BD0000CEDEB7A82F
:10321000BBD6B8B4B5C4B4EDCEF32121210D0A0D4F
:103220000A00000010B502A0FDF752F8012010BD01
:10323000CCF8B9FDD3C3BBA7C8B7C8CFB2BDD6E8D9
:10324000210D0A007047704738B5044643208DF8B9
:10325000000000208DF8010003208DF802000120FD
:103260008DF803006846FDF725FC38BD1CB5044603
:1032700001210846FDF76EFC01218020FDF77AFC54
:103280004FF4C050009002208DF8040000208DF80B
:10329000060003208DF8050000208DF80700694620
:1032A0000E48FDF730FB4FF40040009001208DF8F0
:1032B000040000208DF8070069460848FDF723FB4D
:1032C0000120074908600A220B210448FDF763FB2F
:1032D0000A220C210148FDF75EFB1CBD00000240E4
:1032E000BC02404210B50446A0B202F05DF810BD29
:1032F00010B50446204602F073F810BD3EB50446F2
:1033000000250020029001900090207A01283DD1F4
:10331000E068806B0190019820F480300190607A21
:1033200028B1019820F4801000F5801001900198D8
:10333000E168886300200290E068C068029002980B
:1033400020F040000290029820F480000290029841
:1033500020F400300290029820F40020029002989D
:10336000E168C860204600F0C7F8E078012843D142
:10337000009820F01E000A300090009820F02000F5
:10338000203000900098E168886035E0E068C0680F
:103390000290029820F04000403002900298E168CC
:1033A000C860204600F0A8F800200190019820F4A1
:1033B000803000F580300190019820F4802000F5E5
:1033C00080200190019820F4002000F50020019059
:1033D000019820F4001000F500100190607A28B1E7
:1033E000019820F4801000F5801001900198E168A8
:1033F00088631420FFF776FFE07801280FD1E0689A
:1034000080680090009820F01E000A30009000981C
:1034100020F02000203000900098E1688860284665
:103420003EBDFEB504460026002500200290019016
:1034300000902046FFF706FF0021D4F80C01016040
:10344000207A012803D1204600F00DFC03E0012181
:10345000204600F008FC204600F05BFC6069006834
:103460000090009820F004000090009960690160CD
:10347000E07A01281DD18020E168486202986FF34C
:103480000F0080300290029880B200F5C0000290D8
:103490000298E168886201986FF30F00E0300190B4
:1034A000019880B200F5C00001900198E168C1F870
:1034B00000011021204600F021F9204600F0F8F824
:1034C00000250DE04FF0FF3104F1900050F8250089
:1034D0008160002104F1900050F82500C1606D1C4E
:1034E0002078A842EED80121204600F04EF8204670
:1034F00000F0A4F83046FEBDF8B5044600260025CD
:103500000020009000BF0320FFF7F2FEE068006992
:103510000090681C05461349884201D90020F8BD77
:103520000098C00F0028EED00025009820F0010080
:10353000401C00900098E168086100BFE0680069E5
:103540000090681C05460749884200D904E00098AD
:1035500000F001000028F1D100BF0320FFF7C8FEF2
:103560003046DCE7400D030008B50146002000228C
:103570000092009A22F00102521C0092CA689268DE
:10358000009B9A43CB689A6008BD38B505460C4647
:103590000020009021462846FFF755FE284600F0FF
:1035A00088FB00900098C0F3003058B9012C09D175
:1035B000009820F4805000F5805000900099D5F8D4
:1035C000CC0001600098C0F3003040B13CB90098D5
:1035D00020F4805000900099D5F8CC000160C820FC
:1035E000FFF780FE38BD08B500210091491EC26872
:1035F00051606FF08041C2685161009921F0004133
:1036000001F100410091009921F4006101F5006190
:1036100000910099C268916108BD08B5014600207B
:1036200000220092009A22F00102521C0092CA6805
:103630009268009B1A43CB689A6008BD38B504466F
:10364000002500200090E1688861401EE168486123
:103650002046FFF7C8FFE07820B9009820F010005E
:1036600010300090009820F0807000F18070009081
:10367000009820F0007000F100700090009820F099
:10368000005000F100500090009820F00800083031
:103690000090009820F4001000F500100090E06801
:1036A0008069009988430843E1688861284638BDED
:1036B000F8B504460025002600200090009820F070
:1036C0001000103000900098E168086100BFE068C9
:1036D00000690090701C06460749884200D904E042
:1036E0000098C0F300100028F1D100BF0320FFF7BD
:1036F000FFFD2846F8BD0000400D0300F8B5044664
:103700000D460026002700200090009820F02000A1
:1037100020300090009865F38A1000900098E168CE
:10372000086100BFE06800690090781C07460749FF
:10373000884200D904E00098C0F340100028F1D17D
:1037400000BF0320FFF7D4FD3046F8BD400D030055
:103750000146C868406900F0010070471CB5024688
:10376000002000230093009B23F0004303F100435B
:1037700000930124009B64F3DC43009302F1900367
:1037800053F82130009C1C6102F1900353F8213062
:103790001B680193019B23F0004303F10043019355
:1037A000019B23F08043019302F1900353F82130F1
:1037B000019C1C601CBD10B586B002460020002391
:1037C0000393019302F1900353F821301B68009397
:1037D000009B23F0004303F100430093009B23F080
:1037E000804303F180430093009BC3F3814323B1E3
:1037F000009BC3F38143022B0BD1D368DB6A039395
:10380000039BC3F307437BB9009B23F00043009362
:103810000AE053691B690193019BC3F307431BB97A
:10382000009B23F00043009302F1900353F82130F2
:10383000009C1C6006B010BD3FB50246002000236E
:103840000024029403940194441E009402F1900415
:1038500054F82140009DA56000240394D478012CE5
:1038600004D1039C24F00404241D039402F56B741A
:1038700004EB4114647934B1012C6AD0022C03D0DA
:10388000032C38D138E000BF039C24F00104641CF1
:103890000394039C24F0080408340394039C24F04C
:1038A000800480340394039C24F4806404F58064D1
:1038B0000394039C24F010041034039402F56B74F9
:1038C00004EB4114A47834B1039C24F4807404F50F
:1038D000807403940FE0039C24F04004403403946C
:1038E00002F56B7404EB4114247924B1039C24F099
:1038F0002004203403944EE0039C24F00104641C53
:103900000394039C24F0100410340394039C24F0CB
:10391000080408340394039C24F080048034039446
:10392000039C24F4806404F580640394039C24F4D1
:10393000007404F50074039402F56B7404EB4114F5
:10394000A4782CB1039C24F4807404F5807403944F
:1039500021E0039C24F00104641C0394039C24F4E0
:10396000007404F500740394039C24F020042034B4
:10397000039402F56B7404EB4114A47854B1039CD6
:1039800024F0800480340394039C24F4807404F5B0
:103990008074039400BF00BF02F1900454F82140EA
:1039A000039DE560012404FA01F35469A4691C43F2
:1039B0005569AC61029C24F0007404F10074029417
:1039C000D468A469029D2C43D568AC61002401949D
:1039D00002F56B7404EB41142578019C65F39C544B
:1039E000019402F56B7404EB41146578019C65F356
:1039F000CE24019402F56B7404EB4114A578019C6C
:103A000065F3CF34019402F56B7404EB4114E47850
:103A1000022C01D1012500E00025019C65F35144F1
:103A2000019402F56B7404EB41146579019C65F314
:103A30009344019402F56B7404EB4114E588019CF6
:103A400065F30A04019402F56B7404EB4114647984
:103A5000032C05D1019C24F0005404F1005401947E
:103A600002F1900454F82140019D256004B030BD5E
:103A70002DE9F04388B004460D464FF00009C846D2
:103A80004FF48077002006900790009004F56B704B
:103A900000EB4510006910B304F56B7000EB4510A6
:103AA000016904F56B7000EB4510C0880144491EA4
:103AB00004F56B7000EB4510C088B1FBF0F086B2E6
:103AC000BE420DDD3E4604F56B7000EB4510C1882B
:103AD000714304F56B7000EB4510016100E00126B5
:103AE00004F56B7000EB4510807850B104F56B70F5
:103AF00000EB4510C188714304F56B7000EB451075
:103B0000016104F56B7000EB45100169069861F3E3
:103B100012000690069866F3DC40069004F56B7080
:103B200000EB4510017A069861F35E70069004F18F
:103B3000900050F8250006990161E078012809D12C
:103B400004F56B7000EB4510C16804F1900050F86B
:103B50002500416104F1900050F8250000680790AD
:103B6000204600F08CF8079960F35D710791079883
:103B700020F0004000F100400790079820F08040BE
:103B8000079004F1900050F8250007990160E07853
:103B9000002864D104F56B7000EB45108078002894
:103BA0005DD104F56B7000EB45100069002856D01C
:103BB00004F56B7000EB4510407930B1012821D03D
:103BC000022803D0032839D11BE000BFE068C06A97
:103BD000039004F56B7000EB45100069C01CC0F346
:103BE0008F08039880B240450ADA009820F0200040
:103BF00020300090E068806900990843E16888619E
:103C00001DE000BF60690069019004F56B7000EB76
:103C100045100069C01CC0F38F08019880B2404570
:103C20000BDA009820F0806000F180600090E0687E
:103C3000806900990843E168886100E000BF00BF27
:103C400004F56B7000EB4510008A83B204F56B70CD
:103C500000EB45102A46C168204600F0F3FF4846B5
:103C600008B0BDE8F08308B5426912680092009A76
:103C700061F301020092009B4269136008BD014696
:103C80004869806800F0010080F00100704700B5CD
:103C900002461046FFF75CFD012800D100BD002060
:103CA000FCE701460020CA685069CA689269104062
:103CB000704708B50146D1F8CC0000680090009824
:103CC00020F004000090009820F00200009000987E
:103CD00020F008000090009820F02000009000984C
:103CE00008BD0146486940697047F0B503460024A5
:103CF000D01CC71700EB9777BD10D3F8D06000BF7A
:103D000003E030680860641C091DAC42F9D3084622
:103D1000F0BD38B504462046FFF7CBFF0090009871
:103D200020F4807000F5807000900099D4F8CC00E9
:103D300001600A20FFF7D6FA009820F48070009006
:103D40000099D4F8CC0001601420FFF7CBFA0120D1
:103D500038BD000070B502460C4600230020002547
:103D6000D5700125957040259580012C0CD14FF020
:103D7000A0430125D57208251570042555709D15A1
:103D8000D580022515720AE04CB9254B0025D57265
:103D90000C251570062555704FF4A065D580D360AD
:103DA00003F500651561002110E003F5106505EBD2
:103DB000411602F1180545F8216003F5306505EB61
:103DC000411602F1540545F82160491C55788D4291
:103DD000EBD803F5806555614035C2F8CC50002121
:103DE00008E003F5A06505EB411602F1900545F8E2
:103DF0002160491C15788D42F3D8002108E003F5B5
:103E0000805505EB013602F1D00545F82160491CCB
:103E100015788D42F3D803F56065C2F80C5170BD7A
:103E200000000440F8B504460D460026E068C0686E
:103E30000090009820F000500090009820F0804002
:103E40000090012D06D1009820F0005000F10050A4
:103E5000009006E02DB9009820F0804000F18040ED
:103E600000900098E168C8603220FFF73BFA3046C6
:103E7000F8BD000038B504460020009007480068EF
:103E8000816820468847009820F0005000F10050DB
:103E900000900098E1684861012038BDF0000020E2
:103EA0000CB50146D1F8900000680090009820F011
:103EB000004000F100400090009820F0804000F1A8
:103EC00080400090009AD1F890000260002001909C
:103ED000019820F4001000F5001001900198CA68C4
:103EE000506101200CBD7CB5054600240026284603
:103EF000FFF7F7FE019000BF1BE0019880B201219F
:103F0000A1400840A0B105F1900050F824000068DD
:103F100000900098C0F3C03028B12146284600F038
:103F20000DF8064304E02146284600F01CFA06433B
:103F3000641C2878A042E0D830467CBD70B586B0BD
:103F400005460C4605F1900050F82460B0680590D5
:103F5000F0680490DDE904100840059005F1900038
:103F600050F8240000680390002004900598C0F3E6
:103F70008000D0B100200190019820F00400001DC5
:103F800001900198B06005F1900050F82400C068DD
:103F90000190019820F00200801C019005F1900032
:103FA00050F824000199C16073E00598C0F34010F7
:103FB00048B100200190019820F0200020300190AD
:103FC0000198B06065E00598C0F3C00078B305F1D2
:103FD000900050F82400C0680190019820F0020081
:103FE000801C019005F1900050F824000199C160F7
:103FF000052105F56370015500200190019820F01E
:104000001000103001900198B060002001900198DC
:1040100020F00800083001900198B060059820F069
:1040200010000590E1B22846FFF7C5FB31E0FFE73D
:104030000598C0F3802060B305F1900050F824008B
:10404000C0680190019820F00200801C019005F1E9
:10405000900050F824000199C160E1B22846FFF7B2
:10406000AAFB00200190019820F010001030019070
:104070000198B060082105F563700155002001909A
:10408000019820F4806000F5806001900198B06094
:1040900000BF0598C0F34020F8B105F1900050F83A
:1040A0002400C0680190019820F00200801C01905B
:1040B00005F1900050F824000199C160E1B2284652
:1040C000FFF779FB00200190019820F4007000F5C3
:1040D000007001900198B06042E1059800F0010085
:1040E000002871D0E878012812D105F1900050F82D
:1040F00024000069029005F56B7000EB4410006924
:104100000299C1F31201411A05F5547040F82410C8
:10411000012105F5637001550021783840F824101D
:1041200000200190019820F00100401C01900198AE
:10413000B0600398C0F3814020B10398C0F3814080
:1041400002282AD105F1900050F82400C06801909F
:10415000019820F00200801C019005F1900050F8B9
:1041600024000199C160E1B22846FFF724FB00203A
:104170000190019820F01000103001900198B0607B
:1041800005F56B7000EB4410007E80F0010105F531
:104190006B7000EB44100176E2E00398C0F38140BD
:1041A000032899D1039820F0005000F100500390AB
:1041B00005F1900050F8240003990160012105F2F7
:1041C0009B300155CCE0FFE70598C0F34000002884
:1041D00051D005F1900050F82400C068019001987A
:1041E00020F00200019005F1900050F824000199A0
:1041F000C16005F56370005D012804D1012105F25D
:104200009B3001552DE005F56370005D052804D154
:10421000042105F29B30015523E005F56370005D34
:10422000062804D005F56370005D082808D1002138
:1042300005F5457040F8241003218730015510E042
:104240000398C0F3814003280BD105F56B7000EB98
:104250004410007E80F0010105F56B7000EB441006
:10426000017600200190019820F00200801C01904E
:104270000198B06074E00598C0F3C01040B305F138
:10428000900050F82400C0680190019820F00200CE
:10429000801C019005F1900050F824000199C16044
:1042A00005F5457050F82410491C40F824100621EB
:1042B00078300155E1B22846FFF77DFA00200190E1
:1042C000019820F08000803001900198B06047E0B4
:1042D0000598C0F30010E8B30398C0F381400328A9
:1042E00015D105F1900050F82400C06801900198A4
:1042F00020F00200801C019005F1900050F824008D
:104300000199C160E1B22846FFF755FA18E0039819
:10431000C0F3814020B10398C0F3814002280FD13F
:10432000039820F0004000F100400390039820F033
:104330008040039005F1900050F82400039901603B
:10434000032105F56370015500200190019820F0CC
:10435000100000E004E0103001900198B06000BF50
:10436000012006B070BD7FB505460C4605F19000F2
:1043700050F82460B0680390F0680290DDE9021004
:104380000840039005F1900050F824000068019067
:104390000398C0F38000D0B100200090009820F076
:1043A0000400001D00900098B06005F1900050F8E6
:1043B0002400C0680090009820F00200801C00904B
:1043C00005F1900050F824000099C160B0E1039815
:1043D000C0F3401048B100200090009820F0200069
:1043E000203000900098B060A2E10398C0F3402014
:1043F000F8B105F1900050F82400C06800900098D2
:1044000020F00200801C009005F1900050F824007C
:104410000099C160E1B22846FFF7CDF90020009075
:10442000009820F4007000F5007000900098B060D3
:104430007EE1039800F0010038B3002105F54570D6
:1044400040F8241005F1900050F82400C068009056
:10445000009820F00200801C009005F1900050F8B8
:1044600024000099C160E1B22846FFF7A4F90020BA
:104470000090009820F00100401C00900098B0606F
:10448000012105F56370015552E10398C0F3C000A6
:1044900010B300200090009820F008000830009031
:1044A0000098B06005F1900050F82400C0680090BA
:1044B000009820F00200801C009005F1900050F858
:1044C00024000099C160E1B22846FFF774F9052184
:1044D00005F5637001552BE10398C0F3001038B364
:1044E000002105F5457040F8241005F1900050F8C2
:1044F0002400C0680090009820F00200801C00900A
:1045000005F1900050F824000099C160E1B22846FE
:10451000FFF751F900200090009820F010001030B3
:1045200000900098B060032105F563700155FFE02D
:104530000398C0F3C01040B305F1900050F8240078
:10454000C0680090009820F00200801C009005F1E7
:10455000900050F824000099C160E1B22846FFF7AE
:104560002AF905F5457050F82410491C40F824102C
:1045700006217830015500200090009820F080003E
:10458000803000900098B060D2E00398C0F38010B3
:1045900038B3002105F5457040F8241005F190006E
:1045A00050F82400C0680090009820F00200801CA1
:1045B000009005F1900050F824000099C160E1B22C
:1045C0002846FFF7F8F800200090009820F04000FF
:1045D000403000900098B060042105F563700155EB
:1045E000A6E00398C0F3802060B305F1900050F876
:1045F0002400C0680090009820F00200801C009009
:1046000005F1900050F824000099C160E1B22846FD
:10461000FFF7D1F800200090009820F01000103033
:1046200000900098B060082105F5637001550020E6
:104630000090009820F4806000F580600090009861
:10464000B06075E00398C0F34000002870D005F119
:10465000900050F82400C0680090009820F00200FC
:10466000009005F1900050F824000099C16005F514
:104670006370005D012815D1012105F29B300155C1
:104680000198C0F38140022848D105F56B7000EB1A
:104690004410407E80F0010105F56B7000EB441082
:1046A00041763BE005F56370005D032804D10221EB
:1046B00005F29B30015531E005F56370005D04287B
:1046C0000FD105F56B7000EB44100079012803D180
:1046D000E1B22846FFF742F8022105F29B3001556E
:1046E0001CE005F56370005D052804D1042105F286
:1046F0009B30015512E005F56370005D06280DD171
:1047000005F5457050F82400032807D1032105F270
:104710009B3001550021873840F82410002000907C
:10472000009820F00200801C00900098B06000BF4C
:10473000012004B070BD7FB50446E068C06A0090F7
:104740000198C0F3C30104F56B7000EB41100069E0
:10475000C01CC0F38F0673E04FF6FF71009801EAAA
:1047600080050198C0F3C30104F56B7000EB4110A4
:104770000069A84215D20198C0F3C30104F56B701B
:1047800000EB4110008A85B200200390039820F0CE
:10479000200020300390E068806903998843E16835
:1047A00088610198C0F3C30104F56B7000EB411000
:1047B0000069C01CC0F38F060198C0F3C302C0F3A8
:1047C000C30304F56B7000EB43102B46C168204611
:1047D00000F038FA0198C0F3C30104F56B7000EBE8
:1047E0004110C06841190198C0F3C30204F56B7011
:1047F00000EB4210C1600198C0F3C30104F56B7077
:1048000000EB41100069411B0198C0F3C30204F59D
:104810006B7000EB421001610198C0F3C30104F515
:104820006B7000EB4110406941190198C0F3C3025D
:1048300004F56B7000EB42104161E068C06A0090C3
:10484000009880B2B0420ADD0198C0F3C30104F5BC
:104850006B7000EB4110006900287FF47DAF0120F0
:1048600004B070BDFEB5044600260025002000906F
:1048700002900190D4F8CC0000680290D4F8CC00EB
:1048800000680190019820F004000190019820F048
:1048900002000190019820F008000190019820F09A
:1048A000200001900298C0F3400058B1019820F018
:1048B0000200801C01903248006841682046884709
:1048C00045F001050298C0F3C000002842D00198CD
:1048D00020F00800083001900298C0F38000002802
:1048E00038D0274800684168204688470298C0F3BE
:1048F0004140022804D00298C0F34140012828D149
:104900006069006800900298C0F34140022811D10C
:1049100041F2707160694160009800F00300022864
:1049200018D0207A022803D102212046FFF79BF9F4
:1049300001260FE04BF6803160694160009800F07D
:104940000300012806D001212046FFF78CF901263B
:1049500000E001260298C0F3401030B1019820F029
:1049600020002030019045F0010516B12046FFF7E8
:10497000D0F90199D4F8CC0001602846FEBD0000B2
:10498000F0000020FEB504466069006900900198BF
:10499000C0F3C30104F56B7000EB41100069C01C4B
:1049A000C0F38F0674E04FF6FF71009801EA8005AE
:1049B0000198C0F3C30104F56B7000EB411000696E
:1049C000A84216D20198C0F3C30104F56B7000EB46
:1049D0004110008A85B200200290029820F0806089
:1049E00000F180600290E068806902998843E16884
:1049F00088610198C0F3C30104F56B7000EB4110AE
:104A00000069C01CC0F38F060198C0F3C302C0F355
:104A1000C30304F56B7000EB43102B46C1682046BE
:104A200000F010F90198C0F3C30104F56B7000EBBE
:104A30004110C06841190198C0F3C30204F56B70BE
:104A400000EB4210C1600198C0F3C30104F56B7024
:104A500000EB41100069411B0198C0F3C30204F54B
:104A60006B7000EB421001610198C0F3C30104F5C3
:104A70006B7000EB4110406941190198C0F3C3020B
:104A800004F56B7000EB42104161606900690090B1
:104A9000009880B2B0420ADD0198C0F3C30104F56A
:104AA0006B7000EB4110006900287FF47CAF01209F
:104AB000FEBD30B585B004460020009003900398F9
:104AC00020F0100010300390E0688069039988435B
:104AD000E1688861E068006A0490049800F00F00C3
:104AE000009004F190009DF8001050F8210000683B
:104AF00001900498C0F34340022806D0032878D0E0
:104B0000052877D0072873D175E00498C0F30A1000
:104B1000002869DD04F56B709DF8001000EB411072
:104B2000C068002860D00498C0F30A1204F56B70C6
:104B30009DF8003000EB4310C1682046FFF7D5F820
:104B4000049800F00F0104F56B7000EB4110C06891
:104B50000499C1F30A110144049800F00F0204F50E
:104B60006B7000EB4210C160049800F00F0104F577
:104B70006B7000EB411040690499C1F30A110144C4
:104B8000049800F00F0204F56B7000EB42104161D5
:104B900004F56B709DF8001000EB4110456904F5B9
:104BA00054709DF8001040F8215004F190009DF8D9
:104BB000001050F82100006902900298C0F3C9402B
:104BC000002811DD019820F0004000F10040019024
:104BD000019820F08040019004F190009DF80020A1
:104BE000019950F82200016006E002E002E0FFE7D0
:104BF00000BF00BF00BF00BF00BF039820F010003F
:104C000010300390E068806903990843E168886187
:104C1000012005B030BD000038B5044600200090EA
:104C200007480068016820468847009820F008007F
:104C3000083000900098E1684861012038BD00000C
:104C4000F00000202DE9F04104460026E078B0B9DC
:104C500000270020DD1C4FEAE57805EB98784FEA45
:104C6000A80704F1D00555F822C000BF04E00D6884
:104C7000CCF80050401C091DB842F8D300BF3046A4
:104C8000BDE8F0812DE9FC410027B846002400264C
:104C9000002546A0FBF71CFB6A4601A948A000F0CE
:104CA00072FE0746002F72D146A0FBF711FB019858
:104CB000810A47A0FBF70CFB0098810A4CA0FBF788
:104CC00007FB012152A001F02FFF10B10120BDE828
:104CD000FC8101F0C9FF01F0C1FF0646002001F090
:104CE00019FF2FE0301BB0F5006F15D2301B85B2D5
:104CF000284601F027FF70B901F0BEFF0446C4F357
:104D00000A00A8421ED148492144481B2A46474967
:104D100001F038FE16E017E04FF4006001F012FFDA
:104D200078B901F0A9FF0446C4F30A0050B93E491E
:104D30002144A1F500604FF400623C4901F022FEDD
:104D400000E001E0B442CDD300BF3948006800F074
:104D500081FE3548406800F07F40B0F1006F14D10B
:104D60000120344908604FF47A7000F01DFB4FF4C5
:104D70007A7000F019FB00202F49C1F88C02FBF774
:104D80007EFA294801F0E8FD01E002F005FA02E0B0
:104D90000A2000F009FB2948FBF76CFE0028F7D138
:104DA00027A0FBF795FA384691E70000C9E8B1B8AB
:104DB000C1ACBDD3B3C9B9A6212E2121210D0A0052
:104DC000303A00004641544653204F4B210D0A0013
:104DD00055204469736B20546F74616C2053697A59
:104DE000653A256420202020204D420D0A00000055
:104DF00055204469736B2020467265652053697A9B
:104E0000653A256420202020204D420D0A00000034
:104E1000303A2F4941505F42494E2F4941505F413E
:104E200050502E62696E000000800008BC07002010
:104E3000C80000208C0240420000404210020020C6
:104E4000C9E8B1B8C1ACBDD3D6D02E2E2E0D0A0004
:104E500000BFFEE730380A2801D201207047002049
:104E60007047014600BF70471CB501210846FBF79B
:104E700071FE0820009001208DF8040000208DF8BC
:104E8000060003208DF8050002208DF80700694612
:104E90000348FBF738FD08210148FBF79FFD1CBDC7
:104EA0000000024070B504460D4600202071401EEF
:104EB000E0622946204601F0E5FE08B1032070BDFE
:104EC00094F82E1294F82F0241EA00204AF6552158
:104ED000884201D00220F2E794F86900010694F8B4
:104EE000680041EA004194F8670041EA002094F824
:104EF0006610084320F07F400D49884201D1002010
:104F0000DDE794F88500010694F8840041EA004149
:104F100094F8830041EA002094F88210084320F0BE
:104F20007F400349884201D10020C8E70120C6E73D
:104F300046415400024600E0521C107810B110782F
:104F40008842F9D11078704770B503460D46586A0B
:104F5000021D680A1E68B678B0FBF6F400BF02CAEC
:104F600009B9002070BD8C4200D202E0641A121D03
:104F7000F5E700BF10682044F4E70246891E506937
:104F8000801E884201D8002070479378906A01FB08
:104F90000300F9E72DE9F04705460C46207820F09C
:104FA0004000401E00EB800101EBC00600274FF0DF
:104FB000010800BF1A48C05D205C1949C95D214441
:104FC000497840EA0129B8F1000F10D0484601F0B5
:104FD0004FF98046FF2E07D23146761C35F8110076
:104FE00001F046F9404508D00020BDE8F0874FF6B3
:104FF000FF70814501D00020F7E7781C07460D2897
:10500000D8D3207800F0400038B1B8F1000F04D0B8
:1050100035F8160008B10020E7E70120E5E70000B9
:10502000447200082DE9F04704468946B9F1000FA3
:1050300006D1E76817B16069B84215D8012713E0B7
:105040004946204601F0EEFB0646022E02D2012020
:10505000BDE8F087701C08B93046F9E76069B042D6
:1050600001D93046F4E74F463D4600BF6D1C6069EC
:10507000A84204D80225BD4201D90020E8E729460C
:10508000204601F0CFFB064606B909E0701C08B1C6
:10509000012E01D13046DBE7BD42E7D10020D7E742
:1050A00000BF6FF070422946204601F001FF8046A4
:1050B000B8F1000F08D1B9F1000F05D02A464946D2
:1050C000204601F0F5FE8046B8F1000F0BD1E560F7
:1050D0002069401C78B12069401E2061607940F051
:1050E0000100607107E0B8F1010F02D14FF0FF300D
:1050F00000E0012005462846AAE700002DE9F34F0D
:1051000083B0814604980068019002E00198401C39
:105110000190019800782F28F8D0019800785C2839
:10512000F4D0D9F81CA000252F4600BF38467F1CBC
:1051300001990C5C202C03DB2F2C01D05C2C00D1BE
:1051400032E0FF2D03D3062005B0BDE8F08FE4B2B6
:10515000812C13DBE0B2FE2810DC38467F1C01995D
:105160000E5C402E01DB7E2E05DD802E01DBFE2E47
:1051700001DD0620E8E706EB042084B20121204689
:1051800001F060F804460CB90620DDE7802C06DA51
:10519000214671A0FFF7CEFE08B10620D4E72846CD
:1051A0006D1C2AF81040C1E700BF0198C11904988E
:1051B0000160202C01DA042000E00020804608E095
:1051C000681E3AF81040202C02D02E2C00D002E0AD
:1051D0006D1E002DF4D100BF0DB90620B4E70020EC
:1051E0002AF815000B222021D9F8180001F088FCBC
:1051F000002700E07F1C3AF817002028FAD03AF880
:1052000017002E28F6D00FB148F0030800E06D1EFD
:1052100025B1681E3AF810002E28F8D10020064665
:1052200002904FF0080B00BF38467F1C3AF8104040
:1052300004B963E0202C03D02E2C04D1AF4202D05D
:1052400048F00308F0E70298584501D2AF4214D164
:10525000BBF10B0F02D148F003084FE0AF4201D081
:1052600048F00308AF4200D948E02F4608200290DA
:105270004FF00B0BB006060ED6E7802C09DB20465C
:1052800000F0F6FF0021009000F0DCFF044648F03B
:105290000208FF2C11DDABF101000299884204D80D
:1052A00048F00308CDF808B0BEE72212D9F818304C
:1052B0000298411C02911A5419E024B1214629A0F8
:1052C000FFF738FE18B15F2448F003080FE0412CC7
:1052D00004DB5A2C02DC46F0020608E0612C06DBF7
:1052E0007A2C04DC46F00106A4F1200084B2D9F83F
:1052F00018300298411C02911C5495E700BFD9F860
:1053000018000078E52803D10520D9F81810087096
:10531000BBF1080F01D1B006060E06F00C000C28F8
:1053200003D006F00300032801D148F0020808F07A
:10533000020058B906F00300012801D148F0100816
:1053400006F00C00042801D148F00808D9F818002C
:1053500080F80B800020F7E6222A3A3C3E3F7C7F13
:10536000000000002B2C3B3D5B5D000010B50446A7
:105370006FF00400FBF7AAFDE11704EB5171C1F3D4
:10538000C701074A11701046007800EB4001C1EBDD
:10539000C0104FF6FF7101EAC0000249088010BD3D
:1053A000040000200600002070B504464FF407708A
:1053B00094FBF0F0C6B24FF4077094FBF0F100FBE1
:1053C000114085B205E04FF4077000F02FF8701E11
:1053D000C6B2002EF7D115B1284600F027F870BDEF
:1053E0000146114A12784A434FF0E0235A610022E5
:1053F0009A611A46126942F001021A6100BF4FF029
:10540000E022106900F001021AB100F48032002A93
:10541000F5D04FF0E022126922F001024FF0E023B4
:105420001A6100229A617047040000200146114A67
:1054300012884A434FF0E0235A6100229A611A46CB
:10544000126942F001021A6100BF4FF0E0221069B8
:1054500000F001021AB100F48032002AF5D04FF0BA
:10546000E022126922F001024FF0E0231A610022CB
:105470009A617047060000202DE9F04104460E466F
:105480000021204600F0B8F90546EDB9002700BF1D
:105490002169206801F0F6FB054605B113E060695B
:1054A0000078E52802D06069007820B9781C0746AA
:1054B000B04201D107E000270121204600F07FF82B
:1054C0000546002DE4D000BF042D00D10725284655
:1054D000BDE8F0812DE9F04704460021204600F0A8
:1054E0008BF9074617B13846BDE8F0874FF0FF0942
:1054F000CA464FF6FF70208400BF2169206801F082
:10550000C1FB074607B157E065692E780EB904273D
:1055100052E0E87A00F03F08E52E05D008F00800D8
:1055200040B1B8F10F0F05D04FF0FF094FF6FF70F3
:1055300020843AE0B8F10F0F1CD1E06978B306F08F
:10554000400030B195F80DA026F04006B146E08845
:1055500020844E450AD1687B504507D12946E06931
:10556000FFF718FD10B1A9F1010000E0FF2000F0E5
:10557000FF091AE0B9F1000F05D1284601F071FDCD
:10558000504500D118E0A069C07A00F0010038B998
:105590000B222846A16901F093FA08B90CE004E057
:1055A0004FF0FF094FF6FF7020840021204600F0E5
:1055B00006F80746002FA0D000BF384694E72DE933
:1055C000F04104468846E088461CB0B208B1206924
:1055D00010B90420BDE8F08106F00F0000286CD15E
:1055E0002069401C2061E06828B920680089B04229
:1055F00063D80420EEE720688078401E00EA161089
:1056000000285AD1E168206801F00CF90546012D07
:1056100001D80220DEE7681C08B90120DAE720681B
:105620004069A84243D8B8F1000F01D10420D1E766
:10563000E1682068FFF7F6FC05460DB90720C9E7C9
:10564000012D01D10220C5E7681C08B90120C1E77E
:10565000206801F07AFD08B10120BBE7216801F163
:1056600030004FF40072002101F04AFA2946206808
:10567000FFF783FC2168C86200270EE00120216843
:105680000871206801F061FD08B10120A2E72068DF
:10569000C06A401C2168C8627F1C20688078B842BC
:1056A000ECD82068C06AC01B2168C86200BFE560F2
:1056B00029462068FFF761FC2061E68020683030D1
:1056C00006F00F0100EB41106061002082E72DE938
:1056D000FE4F0446D4F81880D4F81C900C224146A2
:1056E000684601F000FA00BF9DF80B0000F00100D1
:1056F00020B3002088F80B00E06101260CE033465F
:105700004A466946404601F029F82046FFF7E2FE86
:10571000054605B102E0761C642EF0D300BF642E6E
:1057200002D10720BDE8FE8F042D01D02846F9E7FD
:105730009DF80B0088F80B00C4F81C909DF80B0036
:1057400000F0020060B1002600E0761C39F8160077
:105750000028FAD106F119000D21B0FBF1F700E0A5
:10576000012739462046FFF787FE054645BB781ED0
:10577000071E25D0E088C11B204600F03DF80546F5
:10578000F5B9A06901F06DFC824600BF216920686F
:1057900001F078FA054605B111E0FAB253466169A5
:1057A000E06900F045FF01202168087100212046D2
:1057B000FFF705FF054615B9781E071EE6D100BFA5
:1057C000C5B92169206801F05DFA054695B9202226
:1057D0000021606901F094F90B22D4E9050101F080
:1057E00082F9A069C07A00F018006169087301208D
:1057F00021680871284695E72DE9F04104460E46D8
:10580000E680A568012D03D020684069A84202D82F
:105810000220BDE8F0812DB920680078032801D16D
:105820002068456A45B920680089B04201D8022045
:10583000EFE72068476A1EE0206880784FEA00188A
:1058400012E02946206800F0EDFF0546681C08B903
:105850000120DEE7022D03D320684069A84201D869
:105860000220D6E7A6EB08064645EAD2294620687C
:10587000FFF783FB0746E5600FB90220C9E707EB96
:10588000161020612068303006F00F0100EB411047
:1058900060610020BDE770B50446002534B9FDF70E
:1058A000A5FA08B1002070BD0120FCE7012500BF6A
:1058B00000BF0DB10120F6E70020F4E710B5034664
:1058C000DBB931B1012910D0022904D0032911D14B
:1058D00006E0002010E04FF40074148000200BE07C
:1058E0004FF400741480002006E0054C2468146016
:1058F000002001E0042000BF00E0012010BD0000F6
:105900006C5E00202DE9F04105460E4617461C4608
:105910004FF0000814B90420BDE8F08135B92246E3
:1059200039463046FDF732FA804602E04FF0010872
:1059300000BF00BFB8F1000F01D10020ECE701204B
:10594000EAE70146002070472DE9F04105460E4682
:1059500017461C464FF0000814B90420BDE8F0813A
:1059600035B9224639463046FDF748FA804602E00E
:105970004FF0010800BF00BFB8F1000F01D10020B7
:10598000ECE70120EAE72DE9FC4707460C461546FF
:10599000002000908046814601AA6946384600F002
:1059A0006BF806468EB901984069801E0199897886
:1059B00000FB01F901988078009900FB01F84FEA9B
:1059C000590020604FEA580028603046BDE8FC8747
:1059D00010B500240EE04FF40C71002001F04AFADB
:1059E000184941F82400084650F8240000B903E0A3
:1059F000601CC4B2012CEEDB00BF4FF40A71002022
:105A000001F038FA104908604FF40A71002001F0E3
:105A100031FA0E4908604FF40071002001F02AFAB3
:105A20000B490860012C0AD10748006838B10748C3
:105A3000006820B10846006808B1002010BD0120B0
:105A4000FCE70000C4000020C8000020CC000020BB
:105A5000D800002070B50546284600F09BFB0446A0
:105A600044B9284601F0BCFB04460CB9002028606C
:105A7000204670BD2046FCE72DE9F74F82B08A46EC
:105A8000002202A9049800F00FFC01900498046819
:105A9000019800286DD1D4E90410801E814203D8FA
:105AA0002069CAF8000064E094F800B00026BBF159
:105AB000010F1CD1022700BF3946204600F0B2FE7C
:105AC000804608F1010010B9012001900EE0B8F104
:105AD000010F02D10220019008E0B8F1000F00D1BF
